{
  "_format": "hh-sol-artifact-1",
  "contractName": "AggregatePool",
  "sourceName": "contracts/aggregate-pool/AggregatePool.sol",
  "abi": [
    {
      "inputs": [
        {
          "internalType": "address",
          "name": "_incomeMaker",
          "type": "address"
        },
        {
          "internalType": "address",
          "name": "_fur",
          "type": "address"
        },
        {
          "internalType": "address",
          "name": "_oracle",
          "type": "address"
        },
        {
          "internalType": "address",
          "name": "_owner",
          "type": "address"
        },
        {
          "internalType": "address[]",
          "name": "_nfts",
          "type": "address[]"
        },
        {
          "internalType": "string",
          "name": "_name",
          "type": "string"
        },
        {
          "internalType": "string",
          "name": "_symbol",
          "type": "string"
        }
      ],
      "stateMutability": "nonpayable",
      "type": "constructor"
    },
    {
      "anonymous": false,
      "inputs": [
        {
          "indexed": true,
          "internalType": "address",
          "name": "owner",
          "type": "address"
        },
        {
          "indexed": true,
          "internalType": "address",
          "name": "spender",
          "type": "address"
        },
        {
          "indexed": false,
          "internalType": "uint256",
          "name": "value",
          "type": "uint256"
        }
      ],
      "name": "Approval",
      "type": "event"
    },
    {
      "anonymous": false,
      "inputs": [
        {
          "indexed": true,
          "internalType": "address",
          "name": "from",
          "type": "address"
        },
        {
          "indexed": true,
          "internalType": "address",
          "name": "to",
          "type": "address"
        },
        {
          "indexed": false,
          "internalType": "uint256",
          "name": "value",
          "type": "uint256"
        }
      ],
      "name": "Transfer",
      "type": "event"
    },
    {
      "inputs": [],
      "name": "DOMAIN_SEPARATOR",
      "outputs": [
        {
          "internalType": "bytes32",
          "name": "",
          "type": "bytes32"
        }
      ],
      "stateMutability": "view",
      "type": "function"
    },
    {
      "inputs": [
        {
          "internalType": "address",
          "name": "owner",
          "type": "address"
        },
        {
          "internalType": "address",
          "name": "spender",
          "type": "address"
        }
      ],
      "name": "allowance",
      "outputs": [
        {
          "internalType": "uint256",
          "name": "",
          "type": "uint256"
        }
      ],
      "stateMutability": "view",
      "type": "function"
    },
    {
      "inputs": [
        {
          "internalType": "address",
          "name": "spender",
          "type": "address"
        },
        {
          "internalType": "uint256",
          "name": "amount",
          "type": "uint256"
        }
      ],
      "name": "approve",
      "outputs": [
        {
          "internalType": "bool",
          "name": "",
          "type": "bool"
        }
      ],
      "stateMutability": "nonpayable",
      "type": "function"
    },
    {
      "inputs": [
        {
          "internalType": "address",
          "name": "account",
          "type": "address"
        }
      ],
      "name": "balanceOf",
      "outputs": [
        {
          "internalType": "uint256",
          "name": "",
          "type": "uint256"
        }
      ],
      "stateMutability": "view",
      "type": "function"
    },
    {
      "inputs": [
        {
          "internalType": "address",
          "name": "_nft",
          "type": "address"
        },
        {
          "internalType": "uint256",
          "name": "_id",
          "type": "uint256"
        }
      ],
      "name": "buy",
      "outputs": [],
      "stateMutability": "nonpayable",
      "type": "function"
    },
    {
      "inputs": [
        {
          "internalType": "address",
          "name": "_nft",
          "type": "address"
        },
        {
          "internalType": "uint256[]",
          "name": "_ids",
          "type": "uint256[]"
        }
      ],
      "name": "buyBatch",
      "outputs": [],
      "stateMutability": "nonpayable",
      "type": "function"
    },
    {
      "inputs": [
        {
          "internalType": "address",
          "name": "_newOwner",
          "type": "address"
        }
      ],
      "name": "changeOwner",
      "outputs": [],
      "stateMutability": "nonpayable",
      "type": "function"
    },
    {
      "inputs": [],
      "name": "circulatingSupply",
      "outputs": [
        {
          "internalType": "uint256",
          "name": "",
          "type": "uint256"
        }
      ],
      "stateMutability": "view",
      "type": "function"
    },
    {
      "inputs": [],
      "name": "decimals",
      "outputs": [
        {
          "internalType": "uint8",
          "name": "",
          "type": "uint8"
        }
      ],
      "stateMutability": "view",
      "type": "function"
    },
    {
      "inputs": [
        {
          "internalType": "address",
          "name": "spender",
          "type": "address"
        },
        {
          "internalType": "uint256",
          "name": "subtractedValue",
          "type": "uint256"
        }
      ],
      "name": "decreaseAllowance",
      "outputs": [
        {
          "internalType": "bool",
          "name": "",
          "type": "bool"
        }
      ],
      "stateMutability": "nonpayable",
      "type": "function"
    },
    {
      "inputs": [],
      "name": "factory",
      "outputs": [
        {
          "internalType": "address",
          "name": "",
          "type": "address"
        }
      ],
      "stateMutability": "view",
      "type": "function"
    },
    {
      "inputs": [
        {
          "internalType": "address",
          "name": "_nft",
          "type": "address"
        },
        {
          "internalType": "uint256",
          "name": "_id",
          "type": "uint256"
        }
      ],
      "name": "getFurionId",
      "outputs": [
        {
          "internalType": "bytes32",
          "name": "",
          "type": "bytes32"
        }
      ],
      "stateMutability": "pure",
      "type": "function"
    },
    {
      "inputs": [
        {
          "internalType": "address",
          "name": "_nft",
          "type": "address"
        },
        {
          "internalType": "uint256",
          "name": "_id",
          "type": "uint256"
        }
      ],
      "name": "getLockInfo",
      "outputs": [
        {
          "components": [
            {
              "internalType": "address",
              "name": "locker",
              "type": "address"
            },
            {
              "internalType": "bool",
              "name": "extended",
              "type": "bool"
            },
            {
              "internalType": "uint256",
              "name": "releaseTime",
              "type": "uint256"
            },
            {
              "internalType": "uint256",
              "name": "remaining",
              "type": "uint256"
            }
          ],
          "internalType": "struct AggregatePool.LockInfo",
          "name": "",
          "type": "tuple"
        }
      ],
      "stateMutability": "view",
      "type": "function"
    },
    {
      "inputs": [
        {
          "internalType": "uint256",
          "name": "",
          "type": "uint256"
        }
      ],
      "name": "getNft",
      "outputs": [
        {
          "internalType": "address",
          "name": "",
          "type": "address"
        }
      ],
      "stateMutability": "view",
      "type": "function"
    },
    {
      "inputs": [],
      "name": "incomeMaker",
      "outputs": [
        {
          "internalType": "address",
          "name": "",
          "type": "address"
        }
      ],
      "stateMutability": "view",
      "type": "function"
    },
    {
      "inputs": [
        {
          "internalType": "address",
          "name": "spender",
          "type": "address"
        },
        {
          "internalType": "uint256",
          "name": "addedValue",
          "type": "uint256"
        }
      ],
      "name": "increaseAllowance",
      "outputs": [
        {
          "internalType": "bool",
          "name": "",
          "type": "bool"
        }
      ],
      "stateMutability": "nonpayable",
      "type": "function"
    },
    {
      "inputs": [
        {
          "internalType": "address",
          "name": "_nft",
          "type": "address"
        },
        {
          "internalType": "uint256",
          "name": "_id",
          "type": "uint256"
        }
      ],
      "name": "lock",
      "outputs": [],
      "stateMutability": "nonpayable",
      "type": "function"
    },
    {
      "inputs": [
        {
          "internalType": "address",
          "name": "_nft",
          "type": "address"
        },
        {
          "internalType": "uint256[]",
          "name": "_ids",
          "type": "uint256[]"
        }
      ],
      "name": "lockBatch",
      "outputs": [],
      "stateMutability": "nonpayable",
      "type": "function"
    },
    {
      "inputs": [
        {
          "internalType": "bytes32",
          "name": "",
          "type": "bytes32"
        }
      ],
      "name": "lockInfo",
      "outputs": [
        {
          "internalType": "address",
          "name": "locker",
          "type": "address"
        },
        {
          "internalType": "bool",
          "name": "extended",
          "type": "bool"
        },
        {
          "internalType": "uint256",
          "name": "releaseTime",
          "type": "uint256"
        },
        {
          "internalType": "uint256",
          "name": "remaining",
          "type": "uint256"
        }
      ],
      "stateMutability": "view",
      "type": "function"
    },
    {
      "inputs": [],
      "name": "name",
      "outputs": [
        {
          "internalType": "string",
          "name": "",
          "type": "string"
        }
      ],
      "stateMutability": "view",
      "type": "function"
    },
    {
      "inputs": [
        {
          "internalType": "address",
          "name": "owner",
          "type": "address"
        }
      ],
      "name": "nonces",
      "outputs": [
        {
          "internalType": "uint256",
          "name": "",
          "type": "uint256"
        }
      ],
      "stateMutability": "view",
      "type": "function"
    },
    {
      "inputs": [
        {
          "internalType": "address",
          "name": "",
          "type": "address"
        },
        {
          "internalType": "address",
          "name": "",
          "type": "address"
        },
        {
          "internalType": "uint256",
          "name": "",
          "type": "uint256"
        },
        {
          "internalType": "bytes",
          "name": "",
          "type": "bytes"
        }
      ],
      "name": "onERC721Received",
      "outputs": [
        {
          "internalType": "bytes4",
          "name": "",
          "type": "bytes4"
        }
      ],
      "stateMutability": "pure",
      "type": "function"
    },
    {
      "inputs": [],
      "name": "owner",
      "outputs": [
        {
          "internalType": "address",
          "name": "",
          "type": "address"
        }
      ],
      "stateMutability": "view",
      "type": "function"
    },
    {
      "inputs": [
        {
          "internalType": "address",
          "name": "_nft",
          "type": "address"
        },
        {
          "internalType": "uint256",
          "name": "_id",
          "type": "uint256"
        }
      ],
      "name": "payFee",
      "outputs": [],
      "stateMutability": "nonpayable",
      "type": "function"
    },
    {
      "inputs": [
        {
          "internalType": "address",
          "name": "owner",
          "type": "address"
        },
        {
          "internalType": "address",
          "name": "spender",
          "type": "address"
        },
        {
          "internalType": "uint256",
          "name": "value",
          "type": "uint256"
        },
        {
          "internalType": "uint256",
          "name": "deadline",
          "type": "uint256"
        },
        {
          "internalType": "uint8",
          "name": "v",
          "type": "uint8"
        },
        {
          "internalType": "bytes32",
          "name": "r",
          "type": "bytes32"
        },
        {
          "internalType": "bytes32",
          "name": "s",
          "type": "bytes32"
        }
      ],
      "name": "permit",
      "outputs": [],
      "stateMutability": "nonpayable",
      "type": "function"
    },
    {
      "inputs": [],
      "name": "refPricePerFFT",
      "outputs": [
        {
          "internalType": "uint256",
          "name": "",
          "type": "uint256"
        }
      ],
      "stateMutability": "view",
      "type": "function"
    },
    {
      "inputs": [],
      "name": "refPriceSum",
      "outputs": [
        {
          "internalType": "uint256",
          "name": "",
          "type": "uint256"
        }
      ],
      "stateMutability": "view",
      "type": "function"
    },
    {
      "inputs": [
        {
          "internalType": "address",
          "name": "_nft",
          "type": "address"
        }
      ],
      "name": "registerToken",
      "outputs": [],
      "stateMutability": "nonpayable",
      "type": "function"
    },
    {
      "inputs": [
        {
          "internalType": "address",
          "name": "",
          "type": "address"
        }
      ],
      "name": "registered",
      "outputs": [
        {
          "internalType": "bool",
          "name": "",
          "type": "bool"
        }
      ],
      "stateMutability": "view",
      "type": "function"
    },
    {
      "inputs": [
        {
          "internalType": "address",
          "name": "_nft",
          "type": "address"
        },
        {
          "internalType": "uint256",
          "name": "_id",
          "type": "uint256"
        }
      ],
      "name": "release",
      "outputs": [],
      "stateMutability": "nonpayable",
      "type": "function"
    },
    {
      "inputs": [
        {
          "internalType": "address",
          "name": "_newFur",
          "type": "address"
        }
      ],
      "name": "setFur",
      "outputs": [],
      "stateMutability": "nonpayable",
      "type": "function"
    },
    {
      "inputs": [
        {
          "internalType": "address",
          "name": "_nft",
          "type": "address"
        },
        {
          "internalType": "uint256",
          "name": "_id",
          "type": "uint256"
        }
      ],
      "name": "store",
      "outputs": [],
      "stateMutability": "nonpayable",
      "type": "function"
    },
    {
      "inputs": [
        {
          "internalType": "address",
          "name": "_nft",
          "type": "address"
        },
        {
          "internalType": "uint256[]",
          "name": "_ids",
          "type": "uint256[]"
        }
      ],
      "name": "storeBatch",
      "outputs": [],
      "stateMutability": "nonpayable",
      "type": "function"
    },
    {
      "inputs": [],
      "name": "symbol",
      "outputs": [
        {
          "internalType": "string",
          "name": "",
          "type": "string"
        }
      ],
      "stateMutability": "view",
      "type": "function"
    },
    {
      "inputs": [],
      "name": "totalSupply",
      "outputs": [
        {
          "internalType": "uint256",
          "name": "",
          "type": "uint256"
        }
      ],
      "stateMutability": "view",
      "type": "function"
    },
    {
      "inputs": [
        {
          "internalType": "address",
          "name": "to",
          "type": "address"
        },
        {
          "internalType": "uint256",
          "name": "amount",
          "type": "uint256"
        }
      ],
      "name": "transfer",
      "outputs": [
        {
          "internalType": "bool",
          "name": "",
          "type": "bool"
        }
      ],
      "stateMutability": "nonpayable",
      "type": "function"
    },
    {
      "inputs": [
        {
          "internalType": "address",
          "name": "from",
          "type": "address"
        },
        {
          "internalType": "address",
          "name": "to",
          "type": "address"
        },
        {
          "internalType": "uint256",
          "name": "amount",
          "type": "uint256"
        }
      ],
      "name": "transferFrom",
      "outputs": [
        {
          "internalType": "bool",
          "name": "",
          "type": "bool"
        }
      ],
      "stateMutability": "nonpayable",
      "type": "function"
    },
    {
      "inputs": [],
      "name": "types",
      "outputs": [
        {
          "internalType": "uint256",
          "name": "",
          "type": "uint256"
        }
      ],
      "stateMutability": "view",
      "type": "function"
    },
    {
      "inputs": [
        {
          "internalType": "address",
          "name": "_nft",
          "type": "address"
        },
        {
          "internalType": "uint256",
          "name": "_id",
          "type": "uint256"
        }
      ],
      "name": "unlock",
      "outputs": [],
      "stateMutability": "nonpayable",
      "type": "function"
    }
  ],
  "bytecode": "0x61018060405268056bc75e2d63100000600b55680821ab0d4414980000600c553480156200002c57600080fd5b506040516200386b3803806200386b8339810160408190526200004f91620003e8565b8180604051806040016040528060018152602001603160f81b815250848481600390805190602001906200008592919062000247565b5080516200009b90600490602084019062000247565b5050825160208085019190912083518483012060e08290526101008190524660a0818152604080517f8b73c3c69bb8fe3d512ecc4cf759cc79239f7b179b0ffacaa9a75d522b39400f81880181905281830187905260608201869052608082019490945230818401528151808203909301835260c0019052805194019390932091935091906080523060c05261012052505033610140525050506001600160a01b0387811661016052600780546001600160a01b03199081168984161790915560088054821688841617905560098054909116918616919091179055825160005b8181101562000235576001600d6000878481518110620001a057620001a06200053c565b60200260200101516001600160a01b03166001600160a01b0316815260200190815260200160002060006101000a81548160ff021916908315150217905550848181518110620001f457620001f46200053c565b6020908102919091018101516000838152600e909252604090912080546001600160a01b0319166001600160a01b039092169190911790556001016200017c565b50600a55506200058e95505050505050565b828054620002559062000552565b90600052602060002090601f016020900481019282620002795760008555620002c4565b82601f106200029457805160ff1916838001178555620002c4565b82800160010185558215620002c4579182015b82811115620002c4578251825591602001919060010190620002a7565b50620002d2929150620002d6565b5090565b5b80821115620002d25760008155600101620002d7565b80516001600160a01b03811681146200030557600080fd5b919050565b634e487b7160e01b600052604160045260246000fd5b604051601f8201601f191681016001600160401b03811182821017156200034b576200034b6200030a565b604052919050565b600082601f8301126200036557600080fd5b81516001600160401b038111156200038157620003816200030a565b602062000397601f8301601f1916820162000320565b8281528582848701011115620003ac57600080fd5b60005b83811015620003cc578581018301518282018401528201620003af565b83811115620003de5760008385840101525b5095945050505050565b600080600080600080600060e0888a0312156200040457600080fd5b6200040f88620002ed565b9650602062000420818a01620002ed565b96506200043060408a01620002ed565b95506200044060608a01620002ed565b60808a01519095506001600160401b03808211156200045e57600080fd5b818b0191508b601f8301126200047357600080fd5b8151818111156200048857620004886200030a565b8060051b6200049985820162000320565b918252838101850191858101908f841115620004b457600080fd5b948601945b83861015620004dd57620004cd86620002ed565b82529486019490860190620004b9565b60a08f0151909950955050505080831115620004f857600080fd5b620005068c848d0162000353565b945060c08b01519250808311156200051d57600080fd5b50506200052d8a828b0162000353565b91505092959891949750929550565b634e487b7160e01b600052603260045260246000fd5b600181811c908216806200056757607f821691505b6020821081036200058857634e487b7160e01b600052602260045260246000fd5b50919050565b60805160a05160c05160e0516101005161012051610140516101605161325b6200061060003960008181610580015281816108d501526121a001526000818161061d015281816112fb015261139a015260006120e3015260006121320152600061210d0152600061206601526000612090015260006120ba015261325b6000f3fe608060405234801561001057600080fd5b50600436106102ad5760003560e01c80637eee288d1161017b578063be1bd331116100d8578063cce7ec131161008c578063dbbf329911610071578063dbbf32991461066e578063dd62ed3e14610681578063fa6cc505146106ba57600080fd5b8063cce7ec1314610648578063d505accf1461065b57600080fd5b8063c14a6836116100bd578063c14a6836146105aa578063c45a015514610618578063ccbff9791461063f57600080fd5b8063be1bd3311461057b578063bf50ccec146105a257600080fd5b8063a457c2d71161012f578063a9059cbb11610114578063a9059cbb14610532578063b2dd5c0714610545578063bb7907f11461056857600080fd5b8063a457c2d71461050c578063a6f9dae11461051f57600080fd5b80639358928b116101605780639358928b146104e957806395d89b41146104f1578063a271ced2146104f957600080fd5b80637eee288d146104c35780638da5cb5b146104d657600080fd5b80632472f5b01161022957806341f63bfd116101dd57806370a08231116101c257806370a082311461047457806372746eaf1461049d5780637ecebe00146104b057600080fd5b806341f63bfd14610420578063660bbd911461046157600080fd5b8063313ce5671161020e578063313ce567146103f65780633644e51514610405578063395093511461040d57600080fd5b80632472f5b0146103db578063282d3fdf146103e357600080fd5b806309824a801161028057806315b9672c1161026557806315b9672c1461036557806318160ddd146103b657806323b872dd146103c857600080fd5b806309824a801461031b578063150b7a021461032e57600080fd5b80630357371d146102b2578063057aa9cb146102c757806306fdde03146102da578063095ea7b3146102f8575b600080fd5b6102c56102c0366004612da4565b6106cd565b005b6102c56102d5366004612dd0565b610921565b6102e2610a90565b6040516102ef9190612e84565b60405180910390f35b61030b610306366004612da4565b610b22565b60405190151581526020016102ef565b6102c5610329366004612eb7565b610b3a565b61034c61033c366004612ef1565b630a85bd0160e11b949350505050565b6040516001600160e01b031990911681526020016102ef565b610378610373366004612da4565b610be5565b6040516102ef919081516001600160a01b03168152602080830151151590820152604080830151908201526060918201519181019190915260800190565b6002545b6040519081526020016102ef565b61030b6103d6366004612fd1565b610c6d565b6103ba610c91565b6102c56103f1366004612da4565b610ccd565b604051601281526020016102ef565b6103ba610cde565b61030b61041b366004612da4565b610ced565b61044961042e366004613012565b600e602052600090815260409020546001600160a01b031681565b6040516001600160a01b0390911681526020016102ef565b6103ba61046f366004612da4565b610d2c565b6103ba610482366004612eb7565b6001600160a01b031660009081526020819052604090205490565b6102c56104ab366004612da4565b610d74565b6103ba6104be366004612eb7565b610f96565b6102c56104d1366004612da4565b610fb6565b600954610449906001600160a01b031681565b6103ba61121c565b6102e2611227565b6102c5610507366004612da4565b611236565b61030b61051a366004612da4565b611246565b6102c561052d366004612eb7565b6112f0565b61030b610540366004612da4565b611381565b61030b610553366004612eb7565b600d6020526000908152604090205460ff1681565b6102c5610576366004612eb7565b61138f565b6104497f000000000000000000000000000000000000000000000000000000000000000081565b6103ba611420565b6105ee6105b8366004613012565b600f602052600090815260409020805460018201546002909201546001600160a01b03821692600160a01b90920460ff16919084565b604080516001600160a01b03909516855292151560208501529183015260608201526080016102ef565b6104497f000000000000000000000000000000000000000000000000000000000000000081565b6103ba600a5481565b6102c5610656366004612da4565b611505565b6102c561066936600461302b565b611511565b6102c561067c366004612dd0565b611669565b6103ba61068f3660046130a2565b6001600160a01b03918216600090815260016020908152604080832093909416825291909152205490565b6102c56106c8366004612dd0565b61172f565b6009546001600160a01b031633146107235760405162461bcd60e51b815260206004820152601460248201527310540e88155b9c195c9b5a5d1d19590818d85b1b60621b60448201526064015b60405180910390fd5b6001600160a01b0382166000908152600d6020526040902054829060ff1615156001146107895760405162461bcd60e51b815260206004820152601460248201527310540e88155b9c9959da5cdd195c99590813919560621b604482015260640161071a565b828260006107978383610d2c565b6000818152600f60205260409020549091506001600160a01b03166107fe5760405162461bcd60e51b815260206004820152601260248201527f41503a204e4654206e6f74206c6f636b65640000000000000000000000000000604482015260640161071a565b6000818152600f6020526040902060010154421161085e5760405162461bcd60e51b815260206004820181905260248201527f41503a2052656c656173652074696d65206e6f74207965742072656163686564604482015260640161071a565b600061086a8787610d2c565b6000818152600f60205260408120805460028201805474ffffffffffffffffffffffffffffffffffffffffff19831684556001909301849055929092559192506001600160a01b0316906108cf8260646108c58460286130f1565b6105409190613110565b506109157f000000000000000000000000000000000000000000000000000000000000000060646109018460286130f1565b61090b9190613110565b6105409084613132565b50505050505050505050565b600a81106109715760405162461bcd60e51b815260206004820152601e60248201527f41503a2053746f7265206c696d69742070657220747820726561636865640000604482015260640161071a565b60008061097c610c91565b905060005b83811015610a7e576109ad8686868481811061099f5761099f613149565b905060200201356000611902565b6008546000906001600160a01b031663bc241793888888868181106109d4576109d4613149565b6040516001600160e01b031960e087901b1681526001600160a01b0390941660048501526020029190910135602483015250604401602060405180830381865afa158015610a26573d6000803e3d6000fd5b505050506040513d601f19601f82011682018060405250810190610a4a919061315f565b905082610a5f82670de0b6b3a76400006130f1565b610a699190613110565b610a739085613178565b935050600101610981565b50610a893383611a30565b5050505050565b606060038054610a9f90613190565b80601f0160208091040260200160405190810160405280929190818152602001828054610acb90613190565b8015610b185780601f10610aed57610100808354040283529160200191610b18565b820191906000526020600020905b815481529060010190602001808311610afb57829003601f168201915b5050505050905090565b600033610b30818585611b0f565b5060019392505050565b6009546001600160a01b03163314610b8b5760405162461bcd60e51b815260206004820152601460248201527310540e88155b9c195c9b5a5d1d19590818d85b1b60621b604482015260640161071a565b6001600160a01b0381166000818152600d60209081526040808320805460ff19166001179055600a80548452600e909252822080546001600160a01b03191690931790925581549190610bdd836131c4565b919050555050565b604080516080810182526000808252602082018190529181018290526060810182905290610c138484610d2c565b6000908152600f6020908152604091829020825160808101845281546001600160a01b0381168252600160a01b900460ff161515928101929092526001810154928201929092526002909101546060820152949350505050565b600033610c7b858285611c33565b610c86858585611cbf565b506001949350505050565b600080610c9c61121c565b905080600003610cb457662386f26fc1000091505090565b80610cbd611420565b610cc79190613110565b91505090565b610cd982826001611ebc565b505050565b6000610ce8612059565b905090565b3360008181526001602090815260408083206001600160a01b0387168452909152812054909190610b309082908690610d27908790613178565b611b0f565b6040516bffffffffffffffffffffffff19606084901b166020820152603481018290526000906054015b60405160208183030381529060405280519060200120905092915050565b6001600160a01b0382166000908152600d6020526040902054829060ff161515600114610dda5760405162461bcd60e51b815260206004820152601460248201527310540e88155b9c9959da5cdd195c99590813919560621b604482015260640161071a565b6000610de68484610d2c565b6000818152600f6020908152604091829020825160808101845281546001600160a01b038116808352600160a01b90910460ff16151593820193909352600182015493810193909352600201546060830152919250903314610e8a5760405162461bcd60e51b815260206004820152601e60248201527f41503a20596f7520646964206e6f74206c6f636b2074686973204e46542e0000604482015260640161071a565b42816040015111610edd5760405162461bcd60e51b815260206004820152601860248201527f41503a204e465420616c72656164792072656c65617365640000000000000000604482015260640161071a565b806020015115610f2f5760405162461bcd60e51b815260206004820152601960248201527f41503a20416c726561647920657874656e646564206f6e636500000000000000604482015260640161071a565b610f3a600c54612180565b6000828152600f6020526040812080547fffffffffffffffffffffff00ffffffffffffffffffffffffffffffffffffffff16600160a01b178155600101805462278d009290610f8a908490613178565b90915550505050505050565b6001600160a01b0381166000908152600560205260408120545b92915050565b6001600160a01b0382166000908152600d6020526040902054829060ff16151560011461101c5760405162461bcd60e51b815260206004820152601460248201527310540e88155b9c9959da5cdd195c99590813919560621b604482015260640161071a565b8282600061102a8383610d2c565b6000818152600f60205260409020549091506001600160a01b031633146110935760405162461bcd60e51b815260206004820152600e60248201527f41503a204e6f74206c6f636b6572000000000000000000000000000000000000604482015260640161071a565b6000818152600f602052604090206001015442106110f35760405162461bcd60e51b815260206004820152601860248201527f41503a204e465420616c72656164792072656c65617365640000000000000000604482015260640161071a565b60006110ff8787610d2c565b60085460405163bc24179360e01b81526001600160a01b038a81166004830152602482018a90529293506000929091169063bc24179390604401602060405180830381865afa158015611156573d6000803e3d6000fd5b505050506040513d601f19601f8201168201806040525081019061117a919061315f565b90506000611186610c91565b9050600060028261119f85670de0b6b3a76400006130f1565b6111a99190613110565b6111b39190613110565b90506111bf338261221d565b6000848152600f60205260409020600201546111dc90309061221d565b6000848152600f60205260408120805474ffffffffffffffffffffffffffffffffffffffffff1916815560018101829055600201556109158a338b61236b565b6000610ce860025490565b606060048054610a9f90613190565b61124282826001611902565b5050565b3360008181526001602090815260408083206001600160a01b0387168452909152812054909190838110156112e35760405162461bcd60e51b815260206004820152602560248201527f45524332303a2064656372656173656420616c6c6f77616e63652062656c6f7760448201527f207a65726f000000000000000000000000000000000000000000000000000000606482015260840161071a565b610c868286868403611b0f565b336001600160a01b037f0000000000000000000000000000000000000000000000000000000000000000161461135f5760405162461bcd60e51b815260206004820152601460248201527310540e88155b9c195c9b5a5d1d19590818d85b1b60621b604482015260640161071a565b600980546001600160a01b0319166001600160a01b0392909216919091179055565b600033610b30818585611cbf565b336001600160a01b037f000000000000000000000000000000000000000000000000000000000000000016146113fe5760405162461bcd60e51b815260206004820152601460248201527310540e88155b9c195c9b5a5d1d19590818d85b1b60621b604482015260640161071a565b600780546001600160a01b0319166001600160a01b0392909216919091179055565b60008060005b600a548110156114f2576000818152600e602052604080822054600854915163bc24179360e01b81526001600160a01b0391821660048201819052602482018590529392919091169063bc24179390604401602060405180830381865afa158015611495573d6000803e3d6000fd5b505050506040513d601f19601f820116820180604052508101906114b9919061315f565b905060006114c78330612522565b905060006114d582846130f1565b90506114e18187613178565b955084600101945050505050611426565b50610cc781670de0b6b3a76400006130f1565b61124282826001612609565b834211156115615760405162461bcd60e51b815260206004820152601d60248201527f45524332305065726d69743a206578706972656420646561646c696e65000000604482015260640161071a565b60007f6e71edae12b1b97f4d1f60370fef10105fa2faae0126114a169c64845d6126c98888886115908c61273e565b6040805160208101969096526001600160a01b0394851690860152929091166060840152608083015260a082015260c0810186905260e00160405160208183030381529060405280519060200120905060006115eb82612766565b905060006115fb82878787612779565b9050896001600160a01b0316816001600160a01b03161461165e5760405162461bcd60e51b815260206004820152601e60248201527f45524332305065726d69743a20696e76616c6964207369676e61747572650000604482015260640161071a565b6109158a8a8a611b0f565b600a81106116b95760405162461bcd60e51b815260206004820152601d60248201527f41503a204c6f636b206c696d6974207065722074782072656163686564000000604482015260640161071a565b600c546116d0906116cb9083906130f1565b612180565b6000805b8281101561171457611700858585848181106116f2576116f2613149565b905060200201356000611ebc565b61170a9083613178565b91506001016116d4565b5061171f3382611a30565b6117293082611a30565b50505050565b61176d6040518060400160405280600881526020017f62757942617463680000000000000000000000000000000000000000000000008152506127a1565b600a81106117bd5760405162461bcd60e51b815260206004820152601c60248201527f41503a20427579206c696d697420706572207478207265616368656400000000604482015260640161071a565b600b546117cf906116cb9083906130f1565b6000806117da610c91565b905060005b838110156118b8576008546000906001600160a01b031663bc2417938888888681811061180e5761180e613149565b6040516001600160e01b031960e087901b1681526001600160a01b0390941660048501526020029190910135602483015250604401602060405180830381865afa158015611860573d6000803e3d6000fd5b505050506040513d601f19601f82011682018060405250810190611884919061315f565b90508261189982670de0b6b3a76400006130f1565b6118a39190613110565b6118ad9085613178565b9350506001016117df565b506118c3338361221d565b60005b838110156118fa576118f2868686848181106118e4576118e4613149565b905060200201356000612609565b6001016118c6565b505050505050565b6001600160a01b0383166000908152600d6020526040902054839060ff1615156001146119685760405162461bcd60e51b815260206004820152601460248201527310540e88155b9c9959da5cdd195c99590813919560621b604482015260640161071a565b60085460405163bc24179360e01b81526001600160a01b03868116600483015260248201869052600092169063bc24179390604401602060405180830381865afa1580156119ba573d6000803e3d6000fd5b505050506040513d601f19601f820116820180604052508101906119de919061315f565b905060006119ea610c91565b9050600081611a0184670de0b6b3a76400006130f1565b611a0b9190613110565b9050611a1787876127e7565b8415611a2757611a273382611a30565b50505050505050565b6001600160a01b038216611a865760405162461bcd60e51b815260206004820152601f60248201527f45524332303a206d696e7420746f20746865207a65726f206164647265737300604482015260640161071a565b8060026000828254611a989190613178565b90915550506001600160a01b03821660009081526020819052604081208054839290611ac5908490613178565b90915550506040518181526001600160a01b038316906000907fddf252ad1be2c89b69c2b068fc378daa952ba7f163c4a11628f55a4df523b3ef9060200160405180910390a35050565b6001600160a01b038316611b715760405162461bcd60e51b8152602060048201526024808201527f45524332303a20617070726f76652066726f6d20746865207a65726f206164646044820152637265737360e01b606482015260840161071a565b6001600160a01b038216611bd25760405162461bcd60e51b815260206004820152602260248201527f45524332303a20617070726f766520746f20746865207a65726f206164647265604482015261737360f01b606482015260840161071a565b6001600160a01b0383811660008181526001602090815260408083209487168084529482529182902085905590518481527f8c5be1e5ebec7d5bd14f71427d1e84f3dd0314c0f7b2291e5b200ac8c7c3b925910160405180910390a3505050565b6001600160a01b0383811660009081526001602090815260408083209386168352929052205460001981146117295781811015611cb25760405162461bcd60e51b815260206004820152601d60248201527f45524332303a20696e73756666696369656e7420616c6c6f77616e6365000000604482015260640161071a565b6117298484848403611b0f565b6001600160a01b038316611d3b5760405162461bcd60e51b815260206004820152602560248201527f45524332303a207472616e736665722066726f6d20746865207a65726f20616460448201527f6472657373000000000000000000000000000000000000000000000000000000606482015260840161071a565b6001600160a01b038216611d9d5760405162461bcd60e51b815260206004820152602360248201527f45524332303a207472616e7366657220746f20746865207a65726f206164647260448201526265737360e81b606482015260840161071a565b6001600160a01b03831660009081526020819052604090205481811015611e2c5760405162461bcd60e51b815260206004820152602660248201527f45524332303a207472616e7366657220616d6f756e742065786365656473206260448201527f616c616e63650000000000000000000000000000000000000000000000000000606482015260840161071a565b6001600160a01b03808516600090815260208190526040808220858503905591851681529081208054849290611e63908490613178565b92505081905550826001600160a01b0316846001600160a01b03167fddf252ad1be2c89b69c2b068fc378daa952ba7f163c4a11628f55a4df523b3ef84604051611eaf91815260200190565b60405180910390a3611729565b6001600160a01b0383166000908152600d6020526040812054849060ff161515600114611f225760405162461bcd60e51b815260206004820152601460248201527310540e88155b9c9959da5cdd195c99590813919560621b604482015260640161071a565b611f2c85856127e7565b60085460405163bc24179360e01b81526001600160a01b03878116600483015260248201879052600092169063bc24179390604401602060405180830381865afa158015611f7e573d6000803e3d6000fd5b505050506040513d601f19601f82011682018060405250810190611fa2919061315f565b90506000611fae610c91565b90506000600282611fc785670de0b6b3a76400006130f1565b611fd19190613110565b611fdb9190613110565b90508515611ff857611fee600c54612180565b611ff83382611a30565b60006120048989610d2c565b6000818152600f6020526040902080546001600160a01b0319163317905590506120314262278d00613178565b6000918252600f60205260409091206001810191909155600201819055979650505050505050565b6000306001600160a01b037f0000000000000000000000000000000000000000000000000000000000000000161480156120b257507f000000000000000000000000000000000000000000000000000000000000000046145b156120dc57507f000000000000000000000000000000000000000000000000000000000000000090565b50604080517f00000000000000000000000000000000000000000000000000000000000000006020808301919091527f0000000000000000000000000000000000000000000000000000000000000000828401527f000000000000000000000000000000000000000000000000000000000000000060608301524660808301523060a0808401919091528351808403909101815260c0909201909252805191012090565b6007546040516323b872dd60e01b81523360048201526001600160a01b037f00000000000000000000000000000000000000000000000000000000000000008116602483015260448201849052909116906323b872dd906064016020604051808303816000875af11580156121f9573d6000803e3d6000fd5b505050506040513d601f19601f8201168201806040525081019061124291906131dd565b6001600160a01b03821661227d5760405162461bcd60e51b815260206004820152602160248201527f45524332303a206275726e2066726f6d20746865207a65726f206164647265736044820152607360f81b606482015260840161071a565b6001600160a01b038216600090815260208190526040902054818110156122f15760405162461bcd60e51b815260206004820152602260248201527f45524332303a206275726e20616d6f756e7420657863656564732062616c616e604482015261636560f01b606482015260840161071a565b6001600160a01b0383166000908152602081905260408120838303905560028054849290612320908490613132565b90915550506040518281526000906001600160a01b038516907fddf252ad1be2c89b69c2b068fc378daa952ba7f163c4a11628f55a4df523b3ef9060200160405180910390a3505050565b60607306012c8cf97bead5deae237070f9587f8e7a266c196001600160a01b038516016123df576040516001600160a01b03841660248201526044810183905260640160408051601f198184030181529190526020810180516001600160e01b031663a9059cbb60e01b17905290506124a0565b73a3430ccf668e6bf470eb11892b338ee9f3776aa2196001600160a01b03851601612451576040516001600160a01b03841660248201526044810183905260640160408051601f198184030181529190526020810180516001600160e01b03166322dca8bb60e21b17905290506124a0565b6040513060248201526001600160a01b03841660448201526064810183905260840160408051601f198184030181529190526020810180516001600160e01b0316632142170760e11b17905290505b600080856001600160a01b0316836040516124bb91906131ff565b6000604051808303816000865af19150503d80600081146124f8576040519150601f19603f3d011682016040523d82523d6000602084013e6124fd565b606091505b5091509150818190611a275760405162461bcd60e51b815260040161071a9190612e84565b6040516001600160a01b0382166024820152600090819060440160408051601f198184030181529181526020820180516001600160e01b03166370a0823160e01b1790525190915060009081906001600160a01b038716906125859085906131ff565b600060405180830381855afa9150503d80600081146125c0576040519150601f19603f3d011682016040523d82523d6000602084013e6125c5565b606091505b50915091508181906125ea5760405162461bcd60e51b815260040161071a9190612e84565b50808060200190518101906125ff919061315f565b9695505050505050565b6001600160a01b0383166000908152600d6020526040902054839060ff16151560011461266f5760405162461bcd60e51b815260206004820152601460248201527310540e88155b9c9959da5cdd195c99590813919560621b604482015260640161071a565b811561273357612680600b54612180565b60085460405163bc24179360e01b81526001600160a01b03868116600483015260248201869052600092169063bc24179390604401602060405180830381865afa1580156126d2573d6000803e3d6000fd5b505050506040513d601f19601f820116820180604052508101906126f6919061315f565b90506000612702610c91565b905060008161271984670de0b6b3a76400006130f1565b6127239190613110565b905061272f338261221d565b5050505b61172984338561236b565b6001600160a01b03811660009081526005602052604090208054600181018255905b50919050565b6000610fb0612773612059565b83612aa4565b600080600061278a87878787612acb565b9150915061279781612bb8565b5095945050505050565b6127e4816040516024016127b59190612e84565b60408051601f198184030181529190526020810180516001600160e01b031663104c13eb60e21b179052612d6e565b50565b60607306012c8cf97bead5deae237070f9587f8e7a266c196001600160a01b03841601612858576040513360248201523060448201526064810183905260840160408051601f198184030181529190526020810180516001600160e01b03166323b872dd60e01b1790529050612a22565b73a3430ccf668e6bf470eb11892b338ee9f3776aa2196001600160a01b038416016129dc5760008260405160240161289291815260200190565b60408051601f198184030181529181526020820180516001600160e01b0316630b02f02d60e31b1790525190915060009081906001600160a01b038716906128db9085906131ff565b600060405180830381855afa9150503d8060008114612916576040519150601f19603f3d011682016040523d82523d6000602084013e61291b565b606091505b5091509150600081806020019051810190612936919061321b565b905082801561294d57506001600160a01b03811633145b6129995760405162461bcd60e51b815260206004820152601b60248201527f50756e6b206f776e65727368697020636865636b206661696c65640000000000604482015260640161071a565b6040516024810187905260440160408051601f198184030181529190526020810180516001600160e01b031663104c9fd360e31b1790529450612a229350505050565b6040513360248201523060448201526064810183905260840160408051601f198184030181529190526020810180516001600160e01b0316632142170760e11b17905290505b600080846001600160a01b031683604051612a3d91906131ff565b6000604051808303816000865af19150503d8060008114612a7a576040519150601f19603f3d011682016040523d82523d6000602084013e612a7f565b606091505b50915091508181906118fa5760405162461bcd60e51b815260040161071a9190612e84565b60405161190160f01b60208201526022810183905260428101829052600090606201610d56565b6000807f7fffffffffffffffffffffffffffffff5d576e7357a4501ddfe92f46681b20a0831115612b025750600090506003612baf565b8460ff16601b14158015612b1a57508460ff16601c14155b15612b2b5750600090506004612baf565b6040805160008082526020820180845289905260ff881692820192909252606081018690526080810185905260019060a0016020604051602081039080840390855afa158015612b7f573d6000803e3d6000fd5b5050604051601f1901519150506001600160a01b038116612ba857600060019250925050612baf565b9150600090505b94509492505050565b6000816004811115612bcc57612bcc613238565b03612bd45750565b6001816004811115612be857612be8613238565b03612c355760405162461bcd60e51b815260206004820152601860248201527f45434453413a20696e76616c6964207369676e61747572650000000000000000604482015260640161071a565b6002816004811115612c4957612c49613238565b03612c965760405162461bcd60e51b815260206004820152601f60248201527f45434453413a20696e76616c6964207369676e6174757265206c656e67746800604482015260640161071a565b6003816004811115612caa57612caa613238565b03612d025760405162461bcd60e51b815260206004820152602260248201527f45434453413a20696e76616c6964207369676e6174757265202773272076616c604482015261756560f01b606482015260840161071a565b6004816004811115612d1657612d16613238565b036127e45760405162461bcd60e51b815260206004820152602260248201527f45434453413a20696e76616c6964207369676e6174757265202776272076616c604482015261756560f01b606482015260840161071a565b80516a636f6e736f6c652e6c6f67602083016000808483855afa5050505050565b6001600160a01b03811681146127e457600080fd5b60008060408385031215612db757600080fd5b8235612dc281612d8f565b946020939093013593505050565b600080600060408486031215612de557600080fd5b8335612df081612d8f565b9250602084013567ffffffffffffffff80821115612e0d57600080fd5b818601915086601f830112612e2157600080fd5b813581811115612e3057600080fd5b8760208260051b8501011115612e4557600080fd5b6020830194508093505050509250925092565b60005b83811015612e73578181015183820152602001612e5b565b838111156117295750506000910152565b6020815260008251806020840152612ea3816040850160208701612e58565b601f01601f19169190910160400192915050565b600060208284031215612ec957600080fd5b8135612ed481612d8f565b9392505050565b634e487b7160e01b600052604160045260246000fd5b60008060008060808587031215612f0757600080fd5b8435612f1281612d8f565b93506020850135612f2281612d8f565b925060408501359150606085013567ffffffffffffffff80821115612f4657600080fd5b818701915087601f830112612f5a57600080fd5b813581811115612f6c57612f6c612edb565b604051601f8201601f19908116603f01168101908382118183101715612f9457612f94612edb565b816040528281528a6020848701011115612fad57600080fd5b82602086016020830137600060208483010152809550505050505092959194509250565b600080600060608486031215612fe657600080fd5b8335612ff181612d8f565b9250602084013561300181612d8f565b929592945050506040919091013590565b60006020828403121561302457600080fd5b5035919050565b600080600080600080600060e0888a03121561304657600080fd5b873561305181612d8f565b9650602088013561306181612d8f565b95506040880135945060608801359350608088013560ff8116811461308557600080fd5b9699959850939692959460a0840135945060c09093013592915050565b600080604083850312156130b557600080fd5b82356130c081612d8f565b915060208301356130d081612d8f565b809150509250929050565b634e487b7160e01b600052601160045260246000fd5b600081600019048311821515161561310b5761310b6130db565b500290565b60008261312d57634e487b7160e01b600052601260045260246000fd5b500490565b600082821015613144576131446130db565b500390565b634e487b7160e01b600052603260045260246000fd5b60006020828403121561317157600080fd5b5051919050565b6000821982111561318b5761318b6130db565b500190565b600181811c908216806131a457607f821691505b60208210810361276057634e487b7160e01b600052602260045260246000fd5b6000600182016131d6576131d66130db565b5060010190565b6000602082840312156131ef57600080fd5b81518015158114612ed457600080fd5b60008251613211818460208701612e58565b9190910192915050565b60006020828403121561322d57600080fd5b8151612ed481612d8f565b634e487b7160e01b600052602160045260246000fdfea164736f6c634300080d000a",
  "linkReferences": {},
  "deployedLinkReferences": {}
}