{
  "_format": "hh-sol-artifact-1",
  "contractName": "AggregatePoolFactory",
  "sourceName": "contracts/aggregate-pool/AggregatePoolFactory.sol",
  "abi": [
    {
      "inputs": [
        {
          "internalType": "address",
          "name": "_incomeMaker",
          "type": "address"
        },
        {
          "internalType": "address",
          "name": "_checker",
          "type": "address"
        },
        {
          "internalType": "address",
          "name": "_fur",
          "type": "address"
        },
        {
          "internalType": "address",
          "name": "_oracle",
          "type": "address"
        }
      ],
      "stateMutability": "nonpayable",
      "type": "constructor"
    },
    {
      "anonymous": false,
      "inputs": [
        {
          "indexed": true,
          "internalType": "address",
          "name": "previousOwner",
          "type": "address"
        },
        {
          "indexed": true,
          "internalType": "address",
          "name": "newOwner",
          "type": "address"
        }
      ],
      "name": "OwnershipTransferred",
      "type": "event"
    },
    {
      "anonymous": false,
      "inputs": [
        {
          "indexed": false,
          "internalType": "address",
          "name": "poolAddress",
          "type": "address"
        },
        {
          "indexed": false,
          "internalType": "uint256",
          "name": "id",
          "type": "uint256"
        }
      ],
      "name": "PoolCreated",
      "type": "event"
    },
    {
      "inputs": [],
      "name": "allPoolsLength",
      "outputs": [
        {
          "internalType": "uint256",
          "name": "",
          "type": "uint256"
        }
      ],
      "stateMutability": "view",
      "type": "function"
    },
    {
      "inputs": [],
      "name": "checker",
      "outputs": [
        {
          "internalType": "address",
          "name": "",
          "type": "address"
        }
      ],
      "stateMutability": "view",
      "type": "function"
    },
    {
      "inputs": [
        {
          "internalType": "address[]",
          "name": "_nfts",
          "type": "address[]"
        },
        {
          "internalType": "string",
          "name": "_name",
          "type": "string"
        },
        {
          "internalType": "string",
          "name": "_symbol",
          "type": "string"
        }
      ],
      "name": "createPool",
      "outputs": [
        {
          "internalType": "address",
          "name": "poolAddress",
          "type": "address"
        }
      ],
      "stateMutability": "nonpayable",
      "type": "function"
    },
    {
      "inputs": [],
      "name": "fur",
      "outputs": [
        {
          "internalType": "address",
          "name": "",
          "type": "address"
        }
      ],
      "stateMutability": "view",
      "type": "function"
    },
    {
      "inputs": [
        {
          "internalType": "uint256",
          "name": "",
          "type": "uint256"
        }
      ],
      "name": "getPool",
      "outputs": [
        {
          "internalType": "address",
          "name": "",
          "type": "address"
        }
      ],
      "stateMutability": "view",
      "type": "function"
    },
    {
      "inputs": [],
      "name": "incomeMaker",
      "outputs": [
        {
          "internalType": "address",
          "name": "",
          "type": "address"
        }
      ],
      "stateMutability": "view",
      "type": "function"
    },
    {
      "inputs": [],
      "name": "nextId",
      "outputs": [
        {
          "internalType": "uint256",
          "name": "",
          "type": "uint256"
        }
      ],
      "stateMutability": "view",
      "type": "function"
    },
    {
      "inputs": [],
      "name": "oracle",
      "outputs": [
        {
          "internalType": "address",
          "name": "",
          "type": "address"
        }
      ],
      "stateMutability": "view",
      "type": "function"
    },
    {
      "inputs": [],
      "name": "owner",
      "outputs": [
        {
          "internalType": "address",
          "name": "",
          "type": "address"
        }
      ],
      "stateMutability": "view",
      "type": "function"
    },
    {
      "inputs": [],
      "name": "renounceOwnership",
      "outputs": [],
      "stateMutability": "nonpayable",
      "type": "function"
    },
    {
      "inputs": [
        {
          "internalType": "address",
          "name": "_newFur",
          "type": "address"
        }
      ],
      "name": "setFur",
      "outputs": [],
      "stateMutability": "nonpayable",
      "type": "function"
    },
    {
      "inputs": [
        {
          "internalType": "address",
          "name": "_newOwner",
          "type": "address"
        }
      ],
      "name": "transferOwnership",
      "outputs": [],
      "stateMutability": "nonpayable",
      "type": "function"
    }
  ],
  "bytecode": "0x60c060405234801561001057600080fd5b506040516200431738038062004317833981016040819052610031916100e2565b61003a33610076565b6001600160a01b0393841660805291831660a052600180549184166001600160a01b031992831617905560028054929093169116179055610136565b600080546001600160a01b038381166001600160a01b0319831681178455604051919092169283917f8be0079c531659141344cd1fd0a4f28419497f9722a3daafe3b4186f6b6457e09190a35050565b80516001600160a01b03811681146100dd57600080fd5b919050565b600080600080608085870312156100f857600080fd5b610101856100c6565b935061010f602086016100c6565b925061011d604086016100c6565b915061012b606086016100c6565b905092959194509250565b60805160a0516141a662000171600039600081816101d7015281816102e501526104dd0152600081816101af01526103bf01526141a66000f3fe60806040523480156200001157600080fd5b5060043610620000e55760003560e01c8063bb7907f1116200008b578063e0f877491162000062578063e0f8774914620001f9578063efde4e641462000210578063f2fde38b146200021957600080fd5b8063bb7907f11462000192578063be1bd33114620001a9578063cf5303cf14620001d157600080fd5b80637dc0d1d011620000c05780637dc0d1d014620001585780638da5cb5b146200016c57806392eec6b2146200017e57600080fd5b8063068bcd8d14620000ea57806361b8ce8c1462000133578063715018a6146200014c575b600080fd5b62000116620000fb36600462000784565b6004602052600090815260409020546001600160a01b031681565b6040516001600160a01b0390911681526020015b60405180910390f35b6200013d60035481565b6040519081526020016200012a565b6200015662000230565b005b60025462000116906001600160a01b031681565b6000546001600160a01b031662000116565b60015462000116906001600160a01b031681565b62000156620001a3366004620007bb565b62000248565b620001167f000000000000000000000000000000000000000000000000000000000000000081565b620001167f000000000000000000000000000000000000000000000000000000000000000081565b620001166200020a366004620008a1565b620002e1565b6003546200013d565b620001566200022a366004620007bb565b6200059f565b6200023a620006bd565b62000246600062000719565b565b62000252620006bd565b60005b600354811015620002dd5760008181526004602081905260409182902054915163bb7907f160e01b81526001600160a01b038581169282019290925291169063bb7907f190602401600060405180830381600087803b158015620002b857600080fd5b505af1158015620002cd573d6000803e3d6000fd5b5050505080600101905062000255565b5050565b60007f00000000000000000000000000000000000000000000000000000000000000006001600160a01b0316620003855760405162461bcd60e51b815260206004820152602660248201527f416767726567617465506f6f6c466163746f72793a20436865636b6572206e6f60448201527f74207365742e000000000000000000000000000000000000000000000000000060648201526084015b60405180910390fd5b6000846040516020016200039a9190620009a7565b60408051601f19818403018152919052805160209091012060015460025491925082917f0000000000000000000000000000000000000000000000000000000000000000916001600160a01b039081169116620003ff6000546001600160a01b031690565b898960405160200162000413919062000a1b565b6040516020818303038152906040528960405160200162000435919062000a62565b604051602081830303815290604052604051620004529062000776565b62000464979695949392919062000abe565b8190604051809103906000f590508015801562000485573d6000803e3d6000fd5b50600354600090815260046020819052604091829020805473ffffffffffffffffffffffffffffffffffffffff19166001600160a01b03858116918217909255925163d48bfca760e01b8152918201929092529193507f0000000000000000000000000000000000000000000000000000000000000000169063d48bfca790602401600060405180830381600087803b1580156200052257600080fd5b505af115801562000537573d6000803e3d6000fd5b5050600380547f641e49906554552c8c33d7e09e02d1270590f405bc1da0c7b99a9c2808abdd059350859250906000620005718362000b63565b90915550604080516001600160a01b03909316835260208301919091520160405180910390a1509392505050565b620005a9620006bd565b6001600160a01b038116620006275760405162461bcd60e51b815260206004820152602660248201527f4f776e61626c653a204e6577206f776e657220697320746865207a65726f206160448201527f646472657373000000000000000000000000000000000000000000000000000060648201526084016200037c565b620006328162000719565b60005b600354811015620002dd5760008181526004602081905260409182902054915163a6f9dae160e01b81526001600160a01b038581169282019290925291169063a6f9dae190602401600060405180830381600087803b1580156200069857600080fd5b505af1158015620006ad573d6000803e3d6000fd5b5050505080600101905062000635565b6000546001600160a01b03163314620002465760405162461bcd60e51b815260206004820181905260248201527f4f776e61626c653a2063616c6c6572206973206e6f7420746865206f776e657260448201526064016200037c565b600080546001600160a01b0383811673ffffffffffffffffffffffffffffffffffffffff19831681178455604051919092169283917f8be0079c531659141344cd1fd0a4f28419497f9722a3daafe3b4186f6b6457e09190a35050565b61360e8062000b8c83390190565b6000602082840312156200079757600080fd5b5035919050565b80356001600160a01b0381168114620007b657600080fd5b919050565b600060208284031215620007ce57600080fd5b620007d9826200079e565b9392505050565b634e487b7160e01b600052604160045260246000fd5b604051601f8201601f1916810167ffffffffffffffff81118282101715620008225762000822620007e0565b604052919050565b600082601f8301126200083c57600080fd5b813567ffffffffffffffff811115620008595762000859620007e0565b6200086e601f8201601f1916602001620007f6565b8181528460208386010111156200088457600080fd5b816020850160208301376000918101602001919091529392505050565b600080600060608486031215620008b757600080fd5b833567ffffffffffffffff80821115620008d057600080fd5b818601915086601f830112620008e557600080fd5b8135602082821115620008fc57620008fc620007e0565b8160051b6200090d828201620007f6565b928352848101820192828101908b8511156200092857600080fd5b958301955b84871015620009515762000941876200079e565b825295830195908301906200092d565b98505050870135925050808211156200096957600080fd5b62000977878388016200082a565b935060408601359150808211156200098e57600080fd5b506200099d868287016200082a565b9150509250925092565b815160009082906020808601845b83811015620009dc5781516001600160a01b031685529382019390820190600101620009b5565b50929695505050505050565b60005b8381101562000a05578181015183820152602001620009eb565b8381111562000a15576000848401525b50505050565b7f467572696f6e46756e6769626c65546f6b656e2000000000000000000000000081526000825162000a55816014850160208701620009e8565b9190910160140192915050565b634646542d60e01b81526000825162000a83816004850160208701620009e8565b9190910160040192915050565b6000815180845262000aaa816020860160208601620009e8565b601f01601f19169290920160200192915050565b600060e082016001600160a01b03808b1684526020818b1681860152818a166040860152818916606086015260e0608086015282885180855261010087019150828a01945060005b8181101562000b2657855185168352948301949183019160010162000b06565b505085810360a087015262000b3c818962000a90565b935050505082810360c084015262000b55818562000a90565b9a9950505050505050505050565b60006001820162000b8457634e487b7160e01b600052601160045260246000fd5b506001019056fe61018060405268056bc75e2d63100000600b55680821ab0d4414980000600c553480156200002c57600080fd5b506040516200360e3803806200360e8339810160408190526200004f91620003e8565b8180604051806040016040528060018152602001603160f81b815250848481600390805190602001906200008592919062000247565b5080516200009b90600490602084019062000247565b5050825160208085019190912083518483012060e08290526101008190524660a0818152604080517f8b73c3c69bb8fe3d512ecc4cf759cc79239f7b179b0ffacaa9a75d522b39400f81880181905281830187905260608201869052608082019490945230818401528151808203909301835260c0019052805194019390932091935091906080523060c05261012052505033610140525050506001600160a01b0387811661016052600780546001600160a01b03199081168984161790915560088054821688841617905560098054909116918616919091179055825160005b8181101562000235576001600d6000878481518110620001a057620001a06200053c565b60200260200101516001600160a01b03166001600160a01b0316815260200190815260200160002060006101000a81548160ff021916908315150217905550848181518110620001f457620001f46200053c565b6020908102919091018101516000838152600e909252604090912080546001600160a01b0319166001600160a01b039092169190911790556001016200017c565b50600a55506200058e95505050505050565b828054620002559062000552565b90600052602060002090601f016020900481019282620002795760008555620002c4565b82601f106200029457805160ff1916838001178555620002c4565b82800160010185558215620002c4579182015b82811115620002c4578251825591602001919060010190620002a7565b50620002d2929150620002d6565b5090565b5b80821115620002d25760008155600101620002d7565b80516001600160a01b03811681146200030557600080fd5b919050565b634e487b7160e01b600052604160045260246000fd5b604051601f8201601f191681016001600160401b03811182821017156200034b576200034b6200030a565b604052919050565b600082601f8301126200036557600080fd5b81516001600160401b038111156200038157620003816200030a565b602062000397601f8301601f1916820162000320565b8281528582848701011115620003ac57600080fd5b60005b83811015620003cc578581018301518282018401528201620003af565b83811115620003de5760008385840101525b5095945050505050565b600080600080600080600060e0888a0312156200040457600080fd5b6200040f88620002ed565b9650602062000420818a01620002ed565b96506200043060408a01620002ed565b95506200044060608a01620002ed565b60808a01519095506001600160401b03808211156200045e57600080fd5b818b0191508b601f8301126200047357600080fd5b8151818111156200048857620004886200030a565b8060051b6200049985820162000320565b918252838101850191858101908f841115620004b457600080fd5b948601945b83861015620004dd57620004cd86620002ed565b82529486019490860190620004b9565b60a08f0151909950955050505080831115620004f857600080fd5b620005068c848d0162000353565b945060c08b01519250808311156200051d57600080fd5b50506200052d8a828b0162000353565b91505092959891949750929550565b634e487b7160e01b600052603260045260246000fd5b600181811c908216806200056757607f821691505b6020821081036200058857634e487b7160e01b600052602260045260246000fd5b50919050565b60805160a05160c05160e05161010051610120516101405161016051612ffe62000610600039600081816105800152818161086f0152611fa001526000818161061d015281816111c7015261126601526000611ee301526000611f3201526000611f0d01526000611e6601526000611e9001526000611eba0152612ffe6000f3fe608060405234801561001057600080fd5b50600436106102ad5760003560e01c80637eee288d1161017b578063be1bd331116100d8578063cce7ec131161008c578063dbbf329911610071578063dbbf32991461066e578063dd62ed3e14610681578063fa6cc505146106ba57600080fd5b8063cce7ec1314610648578063d505accf1461065b57600080fd5b8063c14a6836116100bd578063c14a6836146105aa578063c45a015514610618578063ccbff9791461063f57600080fd5b8063be1bd3311461057b578063bf50ccec146105a257600080fd5b8063a457c2d71161012f578063a9059cbb11610114578063a9059cbb14610532578063b2dd5c0714610545578063bb7907f11461056857600080fd5b8063a457c2d71461050c578063a6f9dae11461051f57600080fd5b80639358928b116101605780639358928b146104e957806395d89b41146104f1578063a271ced2146104f957600080fd5b80637eee288d146104c35780638da5cb5b146104d657600080fd5b80632472f5b01161022957806341f63bfd116101dd57806370a08231116101c257806370a082311461047457806372746eaf1461049d5780637ecebe00146104b057600080fd5b806341f63bfd14610420578063660bbd911461046157600080fd5b8063313ce5671161020e578063313ce567146103f65780633644e51514610405578063395093511461040d57600080fd5b80632472f5b0146103db578063282d3fdf146103e357600080fd5b806309824a801161028057806315b9672c1161026557806315b9672c1461036557806318160ddd146103b657806323b872dd146103c857600080fd5b806309824a801461031b578063150b7a021461032e57600080fd5b80630357371d146102b2578063057aa9cb146102c757806306fdde03146102da578063095ea7b3146102f8575b600080fd5b6102c56102c0366004612b47565b6106cd565b005b6102c56102d5366004612b73565b6108ba565b6102e2610a29565b6040516102ef9190612c27565b60405180910390f35b61030b610306366004612b47565b610abb565b60405190151581526020016102ef565b6102c5610329366004612c5a565b610ad3565b61034c61033c366004612c94565b630a85bd0160e11b949350505050565b6040516001600160e01b031990911681526020016102ef565b610378610373366004612b47565b610b7e565b6040516102ef919081516001600160a01b03168152602080830151151590820152604080830151908201526060918201519181019190915260800190565b6002545b6040519081526020016102ef565b61030b6103d6366004612d74565b610c06565b6103ba610c2a565b6102c56103f1366004612b47565b610c66565b604051601281526020016102ef565b6103ba610c77565b61030b61041b366004612b47565b610c86565b61044961042e366004612db5565b600e602052600090815260409020546001600160a01b031681565b6040516001600160a01b0390911681526020016102ef565b6103ba61046f366004612b47565b610cc5565b6103ba610482366004612c5a565b6001600160a01b031660009081526020819052604090205490565b6102c56104ab366004612b47565b610d0d565b6103ba6104be366004612c5a565b610ec8565b6102c56104d1366004612b47565b610ee8565b600954610449906001600160a01b031681565b6103ba6110e8565b6102e26110f3565b6102c5610507366004612b47565b611102565b61030b61051a366004612b47565b611112565b6102c561052d366004612c5a565b6111bc565b61030b610540366004612b47565b61124d565b61030b610553366004612c5a565b600d6020526000908152604090205460ff1681565b6102c5610576366004612c5a565b61125b565b6104497f000000000000000000000000000000000000000000000000000000000000000081565b6103ba6112ec565b6105ee6105b8366004612db5565b600f602052600090815260409020805460018201546002909201546001600160a01b03821692600160a01b90920460ff16919084565b604080516001600160a01b03909516855292151560208501529183015260608201526080016102ef565b6104497f000000000000000000000000000000000000000000000000000000000000000081565b6103ba600a5481565b6102c5610656366004612b47565b6113d1565b6102c5610669366004612dce565b6113dd565b6102c561067c366004612b73565b611541565b6103ba61068f366004612e45565b6001600160a01b03918216600090815260016020908152604080832093909416825291909152205490565b6102c56106c8366004612b73565b611607565b6009546001600160a01b031633146107235760405162461bcd60e51b815260206004820152601460248201527310540e88155b9c195c9b5a5d1d19590818d85b1b60621b60448201526064015b60405180910390fd5b818160006107318383610cc5565b6000818152600f60205260409020549091506001600160a01b03166107985760405162461bcd60e51b815260206004820152601260248201527f41503a204e4654206e6f74206c6f636b65640000000000000000000000000000604482015260640161071a565b6000818152600f602052604090206001015442116107f85760405162461bcd60e51b815260206004820181905260248201527f41503a2052656c656173652074696d65206e6f74207965742072656163686564604482015260640161071a565b60006108048686610cc5565b6000818152600f60205260408120805460028201805474ffffffffffffffffffffffffffffffffffffffffff19831684556001909301849055929092559192506001600160a01b03169061086982606461085f846028612e94565b6105409190612eb3565b506108af7f0000000000000000000000000000000000000000000000000000000000000000606461089b846028612e94565b6108a59190612eb3565b6105409084612ed5565b505050505050505050565b600a811061090a5760405162461bcd60e51b815260206004820152601e60248201527f41503a2053746f7265206c696d69742070657220747820726561636865640000604482015260640161071a565b600080610915610c2a565b905060005b83811015610a17576109468686868481811061093857610938612eec565b9050602002013560006117da565b6008546000906001600160a01b031663bc2417938888888681811061096d5761096d612eec565b6040516001600160e01b031960e087901b1681526001600160a01b0390941660048501526020029190910135602483015250604401602060405180830381865afa1580156109bf573d6000803e3d6000fd5b505050506040513d601f19601f820116820180604052508101906109e39190612f02565b9050826109f882670de0b6b3a7640000612e94565b610a029190612eb3565b610a0c9085612f1b565b93505060010161091a565b50610a223383611895565b5050505050565b606060038054610a3890612f33565b80601f0160208091040260200160405190810160405280929190818152602001828054610a6490612f33565b8015610ab15780601f10610a8657610100808354040283529160200191610ab1565b820191906000526020600020905b815481529060010190602001808311610a9457829003601f168201915b5050505050905090565b600033610ac9818585611974565b5060019392505050565b6009546001600160a01b03163314610b245760405162461bcd60e51b815260206004820152601460248201527310540e88155b9c195c9b5a5d1d19590818d85b1b60621b604482015260640161071a565b6001600160a01b0381166000818152600d60209081526040808320805460ff19166001179055600a80548452600e909252822080546001600160a01b03191690931790925581549190610b7683612f67565b919050555050565b604080516080810182526000808252602082018190529181018290526060810182905290610bac8484610cc5565b6000908152600f6020908152604091829020825160808101845281546001600160a01b0381168252600160a01b900460ff161515928101929092526001810154928201929092526002909101546060820152949350505050565b600033610c14858285611a98565b610c1f858585611b24565b506001949350505050565b600080610c356110e8565b905080600003610c4d57662386f26fc1000091505090565b80610c566112ec565b610c609190612eb3565b91505090565b610c7282826001611d21565b505050565b6000610c81611e59565b905090565b3360008181526001602090815260408083206001600160a01b0387168452909152812054909190610ac99082908690610cc0908790612f1b565b611974565b6040516bffffffffffffffffffffffff19606084901b166020820152603481018290526000906054015b60405160208183030381529060405280519060200120905092915050565b6000610d198383610cc5565b6000818152600f6020908152604091829020825160808101845281546001600160a01b038116808352600160a01b90910460ff16151593820193909352600182015493810193909352600201546060830152919250903314610dbd5760405162461bcd60e51b815260206004820152601e60248201527f41503a20596f7520646964206e6f74206c6f636b2074686973204e46542e0000604482015260640161071a565b42816040015111610e105760405162461bcd60e51b815260206004820152601860248201527f41503a204e465420616c72656164792072656c65617365640000000000000000604482015260640161071a565b806020015115610e625760405162461bcd60e51b815260206004820152601960248201527f41503a20416c726561647920657874656e646564206f6e636500000000000000604482015260640161071a565b610e6d600c54611f80565b6000828152600f6020526040812080547fffffffffffffffffffffff00ffffffffffffffffffffffffffffffffffffffff16600160a01b178155600101805462278d009290610ebd908490612f1b565b909155505050505050565b6001600160a01b0381166000908152600560205260408120545b92915050565b81816000610ef68383610cc5565b6000818152600f60205260409020549091506001600160a01b03163314610f5f5760405162461bcd60e51b815260206004820152600e60248201527f41503a204e6f74206c6f636b6572000000000000000000000000000000000000604482015260640161071a565b6000818152600f60205260409020600101544210610fbf5760405162461bcd60e51b815260206004820152601860248201527f41503a204e465420616c72656164792072656c65617365640000000000000000604482015260640161071a565b6000610fcb8686610cc5565b60085460405163bc24179360e01b81526001600160a01b038981166004830152602482018990529293506000929091169063bc24179390604401602060405180830381865afa158015611022573d6000803e3d6000fd5b505050506040513d601f19601f820116820180604052508101906110469190612f02565b90506000611052610c2a565b9050600060028261106b85670de0b6b3a7640000612e94565b6110759190612eb3565b61107f9190612eb3565b905061108b338261201d565b6000848152600f60205260409020600201546110a890309061201d565b6000848152600f60205260408120805474ffffffffffffffffffffffffffffffffffffffffff1916815560018101829055600201556108af89338a61216b565b6000610c8160025490565b606060048054610a3890612f33565b61110e828260016117da565b5050565b3360008181526001602090815260408083206001600160a01b0387168452909152812054909190838110156111af5760405162461bcd60e51b815260206004820152602560248201527f45524332303a2064656372656173656420616c6c6f77616e63652062656c6f7760448201527f207a65726f000000000000000000000000000000000000000000000000000000606482015260840161071a565b610c1f8286868403611974565b336001600160a01b037f0000000000000000000000000000000000000000000000000000000000000000161461122b5760405162461bcd60e51b815260206004820152601460248201527310540e88155b9c195c9b5a5d1d19590818d85b1b60621b604482015260640161071a565b600980546001600160a01b0319166001600160a01b0392909216919091179055565b600033610ac9818585611b24565b336001600160a01b037f000000000000000000000000000000000000000000000000000000000000000016146112ca5760405162461bcd60e51b815260206004820152601460248201527310540e88155b9c195c9b5a5d1d19590818d85b1b60621b604482015260640161071a565b600780546001600160a01b0319166001600160a01b0392909216919091179055565b60008060005b600a548110156113be576000818152600e602052604080822054600854915163bc24179360e01b81526001600160a01b0391821660048201819052602482018590529392919091169063bc24179390604401602060405180830381865afa158015611361573d6000803e3d6000fd5b505050506040513d601f19601f820116820180604052508101906113859190612f02565b90506000611393833061232b565b905060006113a18284612e94565b90506113ad8187612f1b565b9550846001019450505050506112f2565b50610c6081670de0b6b3a7640000612e94565b61110e82826001612412565b8342111561142d5760405162461bcd60e51b815260206004820152601d60248201527f45524332305065726d69743a206578706972656420646561646c696e65000000604482015260640161071a565b60007f6e71edae12b1b97f4d1f60370fef10105fa2faae0126114a169c64845d6126c988888861145c8c6124e1565b6040805160208101969096526001600160a01b0394851690860152929091166060840152608083015260a082015260c0810186905260e00160405160208183030381529060405280519060200120905060006114b782612509565b905060006114c78287878761251c565b9050896001600160a01b0316816001600160a01b03161461152a5760405162461bcd60e51b815260206004820152601e60248201527f45524332305065726d69743a20696e76616c6964207369676e61747572650000604482015260640161071a565b6115358a8a8a611974565b50505050505050505050565b600a81106115915760405162461bcd60e51b815260206004820152601d60248201527f41503a204c6f636b206c696d6974207065722074782072656163686564000000604482015260640161071a565b600c546115a8906115a3908390612e94565b611f80565b6000805b828110156115ec576115d8858585848181106115ca576115ca612eec565b905060200201356000611d21565b6115e29083612f1b565b91506001016115ac565b506115f73382611895565b6116013082611895565b50505050565b6116456040518060400160405280600881526020017f6275794261746368000000000000000000000000000000000000000000000000815250612544565b600a81106116955760405162461bcd60e51b815260206004820152601c60248201527f41503a20427579206c696d697420706572207478207265616368656400000000604482015260640161071a565b600b546116a7906115a3908390612e94565b6000806116b2610c2a565b905060005b83811015611790576008546000906001600160a01b031663bc241793888888868181106116e6576116e6612eec565b6040516001600160e01b031960e087901b1681526001600160a01b0390941660048501526020029190910135602483015250604401602060405180830381865afa158015611738573d6000803e3d6000fd5b505050506040513d601f19601f8201168201806040525081019061175c9190612f02565b90508261177182670de0b6b3a7640000612e94565b61177b9190612eb3565b6117859085612f1b565b9350506001016116b7565b5061179b338361201d565b60005b838110156117d2576117ca868686848181106117bc576117bc612eec565b905060200201356000612412565b60010161179e565b505050505050565b60085460405163bc24179360e01b81526001600160a01b03858116600483015260248201859052600092169063bc24179390604401602060405180830381865afa15801561182c573d6000803e3d6000fd5b505050506040513d601f19601f820116820180604052508101906118509190612f02565b9050600061185c610c2a565b905060008161187384670de0b6b3a7640000612e94565b61187d9190612eb3565b9050611889868661258a565b83156117d2576117d233825b6001600160a01b0382166118eb5760405162461bcd60e51b815260206004820152601f60248201527f45524332303a206d696e7420746f20746865207a65726f206164647265737300604482015260640161071a565b80600260008282546118fd9190612f1b565b90915550506001600160a01b0382166000908152602081905260408120805483929061192a908490612f1b565b90915550506040518181526001600160a01b038316906000907fddf252ad1be2c89b69c2b068fc378daa952ba7f163c4a11628f55a4df523b3ef9060200160405180910390a35050565b6001600160a01b0383166119d65760405162461bcd60e51b8152602060048201526024808201527f45524332303a20617070726f76652066726f6d20746865207a65726f206164646044820152637265737360e01b606482015260840161071a565b6001600160a01b038216611a375760405162461bcd60e51b815260206004820152602260248201527f45524332303a20617070726f766520746f20746865207a65726f206164647265604482015261737360f01b606482015260840161071a565b6001600160a01b0383811660008181526001602090815260408083209487168084529482529182902085905590518481527f8c5be1e5ebec7d5bd14f71427d1e84f3dd0314c0f7b2291e5b200ac8c7c3b925910160405180910390a3505050565b6001600160a01b0383811660009081526001602090815260408083209386168352929052205460001981146116015781811015611b175760405162461bcd60e51b815260206004820152601d60248201527f45524332303a20696e73756666696369656e7420616c6c6f77616e6365000000604482015260640161071a565b6116018484848403611974565b6001600160a01b038316611ba05760405162461bcd60e51b815260206004820152602560248201527f45524332303a207472616e736665722066726f6d20746865207a65726f20616460448201527f6472657373000000000000000000000000000000000000000000000000000000606482015260840161071a565b6001600160a01b038216611c025760405162461bcd60e51b815260206004820152602360248201527f45524332303a207472616e7366657220746f20746865207a65726f206164647260448201526265737360e81b606482015260840161071a565b6001600160a01b03831660009081526020819052604090205481811015611c915760405162461bcd60e51b815260206004820152602660248201527f45524332303a207472616e7366657220616d6f756e742065786365656473206260448201527f616c616e63650000000000000000000000000000000000000000000000000000606482015260840161071a565b6001600160a01b03808516600090815260208190526040808220858503905591851681529081208054849290611cc8908490612f1b565b92505081905550826001600160a01b0316846001600160a01b03167fddf252ad1be2c89b69c2b068fc378daa952ba7f163c4a11628f55a4df523b3ef84604051611d1491815260200190565b60405180910390a3611601565b6000611d2d848461258a565b60085460405163bc24179360e01b81526001600160a01b03868116600483015260248201869052600092169063bc24179390604401602060405180830381865afa158015611d7f573d6000803e3d6000fd5b505050506040513d601f19601f82011682018060405250810190611da39190612f02565b90506000611daf610c2a565b90506000600282611dc885670de0b6b3a7640000612e94565b611dd29190612eb3565b611ddc9190612eb3565b90508415611df957611def600c54611f80565b611df93382611895565b6000611e058888610cc5565b6000818152600f6020526040902080546001600160a01b031916331790559050611e324262278d00612f1b565b6000918252600f602052604090912060018101919091556002018190559695505050505050565b6000306001600160a01b037f000000000000000000000000000000000000000000000000000000000000000016148015611eb257507f000000000000000000000000000000000000000000000000000000000000000046145b15611edc57507f000000000000000000000000000000000000000000000000000000000000000090565b50604080517f00000000000000000000000000000000000000000000000000000000000000006020808301919091527f0000000000000000000000000000000000000000000000000000000000000000828401527f000000000000000000000000000000000000000000000000000000000000000060608301524660808301523060a0808401919091528351808403909101815260c0909201909252805191012090565b6007546040516323b872dd60e01b81523360048201526001600160a01b037f00000000000000000000000000000000000000000000000000000000000000008116602483015260448201849052909116906323b872dd906064016020604051808303816000875af1158015611ff9573d6000803e3d6000fd5b505050506040513d601f19601f8201168201806040525081019061110e9190612f80565b6001600160a01b03821661207d5760405162461bcd60e51b815260206004820152602160248201527f45524332303a206275726e2066726f6d20746865207a65726f206164647265736044820152607360f81b606482015260840161071a565b6001600160a01b038216600090815260208190526040902054818110156120f15760405162461bcd60e51b815260206004820152602260248201527f45524332303a206275726e20616d6f756e7420657863656564732062616c616e604482015261636560f01b606482015260840161071a565b6001600160a01b0383166000908152602081905260408120838303905560028054849290612120908490612ed5565b90915550506040518281526000906001600160a01b038516907fddf252ad1be2c89b69c2b068fc378daa952ba7f163c4a11628f55a4df523b3ef9060200160405180910390a3505050565b60607306012c8cf97bead5deae237070f9587f8e7a266c196001600160a01b038516016121df576040516001600160a01b03841660248201526044810183905260640160408051601f198184030181529190526020810180516001600160e01b031663a9059cbb60e01b17905290506122a0565b7390bd8a7d20534a896d057a1f4ea1b574f15f16d4196001600160a01b03851601612251576040516001600160a01b03841660248201526044810183905260640160408051601f198184030181529190526020810180516001600160e01b03166322dca8bb60e21b17905290506122a0565b6040513060248201526001600160a01b03841660448201526064810183905260840160408051601f198184030181529190526020810180516001600160e01b0316632142170760e11b17905290505b600080856001600160a01b0316836040516122bb9190612fa2565b6000604051808303816000865af19150503d80600081146122f8576040519150601f19603f3d011682016040523d82523d6000602084013e6122fd565b606091505b50915091508181906123225760405162461bcd60e51b815260040161071a9190612c27565b50505050505050565b6040516001600160a01b0382166024820152600090819060440160408051601f198184030181529181526020820180516001600160e01b03166370a0823160e01b1790525190915060009081906001600160a01b0387169061238e908590612fa2565b600060405180830381855afa9150503d80600081146123c9576040519150601f19603f3d011682016040523d82523d6000602084013e6123ce565b606091505b50915091508181906123f35760405162461bcd60e51b815260040161071a9190612c27565b50808060200190518101906124089190612f02565b9695505050505050565b80156124d657612423600b54611f80565b60085460405163bc24179360e01b81526001600160a01b03858116600483015260248201859052600092169063bc24179390604401602060405180830381865afa158015612475573d6000803e3d6000fd5b505050506040513d601f19601f820116820180604052508101906124999190612f02565b905060006124a5610c2a565b90506000816124bc84670de0b6b3a7640000612e94565b6124c69190612eb3565b90506124d2338261201d565b5050505b610c7283338461216b565b6001600160a01b03811660009081526005602052604090208054600181018255905b50919050565b6000610ee2612516611e59565b83612847565b600080600061252d8787878761286e565b9150915061253a8161295b565b5095945050505050565b612587816040516024016125589190612c27565b60408051601f198184030181529190526020810180516001600160e01b031663104c13eb60e21b179052612b11565b50565b60607306012c8cf97bead5deae237070f9587f8e7a266c196001600160a01b038416016125fb576040513360248201523060448201526064810183905260840160408051601f198184030181529190526020810180516001600160e01b03166323b872dd60e01b17905290506127c5565b7390bd8a7d20534a896d057a1f4ea1b574f15f16d4196001600160a01b0384160161277f5760008260405160240161263591815260200190565b60408051601f198184030181529181526020820180516001600160e01b0316630b02f02d60e31b1790525190915060009081906001600160a01b0387169061267e908590612fa2565b600060405180830381855afa9150503d80600081146126b9576040519150601f19603f3d011682016040523d82523d6000602084013e6126be565b606091505b50915091506000818060200190518101906126d99190612fbe565b90508280156126f057506001600160a01b03811633145b61273c5760405162461bcd60e51b815260206004820152601b60248201527f50756e6b206f776e65727368697020636865636b206661696c65640000000000604482015260640161071a565b6040516024810187905260440160408051601f198184030181529190526020810180516001600160e01b031663104c9fd360e31b17905294506127c59350505050565b6040513360248201523060448201526064810183905260840160408051601f198184030181529190526020810180516001600160e01b0316632142170760e11b17905290505b600080846001600160a01b0316836040516127e09190612fa2565b6000604051808303816000865af19150503d806000811461281d576040519150601f19603f3d011682016040523d82523d6000602084013e612822565b606091505b50915091508181906117d25760405162461bcd60e51b815260040161071a9190612c27565b60405161190160f01b60208201526022810183905260428101829052600090606201610cef565b6000807f7fffffffffffffffffffffffffffffff5d576e7357a4501ddfe92f46681b20a08311156128a55750600090506003612952565b8460ff16601b141580156128bd57508460ff16601c14155b156128ce5750600090506004612952565b6040805160008082526020820180845289905260ff881692820192909252606081018690526080810185905260019060a0016020604051602081039080840390855afa158015612922573d6000803e3d6000fd5b5050604051601f1901519150506001600160a01b03811661294b57600060019250925050612952565b9150600090505b94509492505050565b600081600481111561296f5761296f612fdb565b036129775750565b600181600481111561298b5761298b612fdb565b036129d85760405162461bcd60e51b815260206004820152601860248201527f45434453413a20696e76616c6964207369676e61747572650000000000000000604482015260640161071a565b60028160048111156129ec576129ec612fdb565b03612a395760405162461bcd60e51b815260206004820152601f60248201527f45434453413a20696e76616c6964207369676e6174757265206c656e67746800604482015260640161071a565b6003816004811115612a4d57612a4d612fdb565b03612aa55760405162461bcd60e51b815260206004820152602260248201527f45434453413a20696e76616c6964207369676e6174757265202773272076616c604482015261756560f01b606482015260840161071a565b6004816004811115612ab957612ab9612fdb565b036125875760405162461bcd60e51b815260206004820152602260248201527f45434453413a20696e76616c6964207369676e6174757265202776272076616c604482015261756560f01b606482015260840161071a565b80516a636f6e736f6c652e6c6f67602083016000808483855afa5050505050565b6001600160a01b038116811461258757600080fd5b60008060408385031215612b5a57600080fd5b8235612b6581612b32565b946020939093013593505050565b600080600060408486031215612b8857600080fd5b8335612b9381612b32565b9250602084013567ffffffffffffffff80821115612bb057600080fd5b818601915086601f830112612bc457600080fd5b813581811115612bd357600080fd5b8760208260051b8501011115612be857600080fd5b6020830194508093505050509250925092565b60005b83811015612c16578181015183820152602001612bfe565b838111156116015750506000910152565b6020815260008251806020840152612c46816040850160208701612bfb565b601f01601f19169190910160400192915050565b600060208284031215612c6c57600080fd5b8135612c7781612b32565b9392505050565b634e487b7160e01b600052604160045260246000fd5b60008060008060808587031215612caa57600080fd5b8435612cb581612b32565b93506020850135612cc581612b32565b925060408501359150606085013567ffffffffffffffff80821115612ce957600080fd5b818701915087601f830112612cfd57600080fd5b813581811115612d0f57612d0f612c7e565b604051601f8201601f19908116603f01168101908382118183101715612d3757612d37612c7e565b816040528281528a6020848701011115612d5057600080fd5b82602086016020830137600060208483010152809550505050505092959194509250565b600080600060608486031215612d8957600080fd5b8335612d9481612b32565b92506020840135612da481612b32565b929592945050506040919091013590565b600060208284031215612dc757600080fd5b5035919050565b600080600080600080600060e0888a031215612de957600080fd5b8735612df481612b32565b96506020880135612e0481612b32565b95506040880135945060608801359350608088013560ff81168114612e2857600080fd5b9699959850939692959460a0840135945060c09093013592915050565b60008060408385031215612e5857600080fd5b8235612e6381612b32565b91506020830135612e7381612b32565b809150509250929050565b634e487b7160e01b600052601160045260246000fd5b6000816000190483118215151615612eae57612eae612e7e565b500290565b600082612ed057634e487b7160e01b600052601260045260246000fd5b500490565b600082821015612ee757612ee7612e7e565b500390565b634e487b7160e01b600052603260045260246000fd5b600060208284031215612f1457600080fd5b5051919050565b60008219821115612f2e57612f2e612e7e565b500190565b600181811c90821680612f4757607f821691505b60208210810361250357634e487b7160e01b600052602260045260246000fd5b600060018201612f7957612f79612e7e565b5060010190565b600060208284031215612f9257600080fd5b81518015158114612c7757600080fd5b60008251612fb4818460208701612bfb565b9190910192915050565b600060208284031215612fd057600080fd5b8151612c7781612b32565b634e487b7160e01b600052602160045260246000fdfea164736f6c634300080d000aa164736f6c634300080d000a",
  "linkReferences": {},
  "deployedLinkReferences": {}
}