{
  "_format": "hh-sol-artifact-1",
  "contractName": "TestClaim",
  "sourceName": "contracts/TestClaim.sol",
  "abi": [
    {
      "inputs": [],
      "name": "claimTest",
      "outputs": [
        {
          "internalType": "uint256",
          "name": "",
          "type": "uint256"
        }
      ],
      "stateMutability": "nonpayable",
      "type": "function"
    },
    {
      "inputs": [
        {
          "internalType": "address",
          "name": "",
          "type": "address"
        }
      ],
      "name": "claimed",
      "outputs": [
        {
          "internalType": "bool",
          "name": "",
          "type": "bool"
        }
      ],
      "stateMutability": "view",
      "type": "function"
    },
    {
      "inputs": [],
      "name": "counter",
      "outputs": [
        {
          "internalType": "uint256",
          "name": "",
          "type": "uint256"
        }
      ],
      "stateMutability": "view",
      "type": "function"
    }
  ],
  "bytecode": "0x6101c060405273cd10801c0d335b84a956c716c194fece0959ff7260809081527372a349e2b68c8dcabc80e2a7366083d4ba0f880f60a052733c526f7ad7028df00320795671a25ff60ab498ea60c05273a3430ccf668e6bf470eb11892b338ee9f3776aa360e05273f19822f7112aa720e4b1145142a967c5a4f61eb16101005273b56ec89cc1129b0f14688765fe6c79f1674e86ce610120527375ed0b07d0df785cd8941de1c762c9f340782ff76101405273cc4c767c41fd71238595f2ed2b5f4f2a18fdbed961016052735df35fdc516b9a7aeb9268e4c71737bcd23d8c3561018052733f49090c9593eac496a64b3562ed5a646bfa8d0d6101a05261010b90600090600a610123565b50600060025534801561011d57600080fd5b5061019d565b828054828255906000526020600020908101928215610178579160200282015b8281111561017857825182546001600160a01b0319166001600160a01b03909116178255602090920191600190910190610143565b50610184929150610188565b5090565b5b808211156101845760008155600101610189565b61047c806101ac6000396000f3fe608060405234801561001057600080fd5b50600436106100415760003560e01c806361bc221a14610046578063c884ef8314610062578063de26036814610095575b600080fd5b61004f60025481565b6040519081526020015b60405180910390f35b610085610070366004610354565b60016020526000908152604090205460ff1681565b6040519015158152602001610059565b61004f3360009081526001602052604081205460ff16156100fd5760405162461bcd60e51b815260206004820152600f60248201527f416c726561647920636c61696d6564000000000000000000000000000000000060448201526064015b60405180910390fd5b33600081815260016020819052604091829020805460ff1916909117905551632b2cea1960e21b81526004810191909152683635c9adc5dea00000602482015273167873d27d6f16c503a694814a3895215344b6019063acb3a86490604401600060405180830381600087803b15801561017657600080fd5b505af115801561018a573d6000803e3d6000fd5b5050604051336024820152600160448201526060925060009150829060640160408051601f198184030181529181526020820180517bffffffffffffffffffffffffffffffffffffffffffffffffffffffff166340c10f1960e01b179052519093507318fa0c5c7258d0184ad49da6e6a6ceeeac560baa9061020d9085906103c1565b6000604051808303816000865af19150503d806000811461024a576040519150601f19603f3d011682016040523d82523d6000602084013e61024f565b606091505b50909250905080826102745760405162461bcd60e51b81526004016100f491906103dd565b506000600a6002546102869190610410565b90506000818154811061029b5761029b610432565b60009182526020909120015460405173ffffffffffffffffffffffffffffffffffffffff909116906102ce9086906103c1565b6000604051808303816000865af19150503d806000811461030b576040519150601f19603f3d011682016040523d82523d6000602084013e610310565b606091505b50909350915081836103355760405162461bcd60e51b81526004016100f491906103dd565b506002805490600061034683610448565b909155509095945050505050565b60006020828403121561036657600080fd5b813573ffffffffffffffffffffffffffffffffffffffff8116811461038a57600080fd5b9392505050565b60005b838110156103ac578181015183820152602001610394565b838111156103bb576000848401525b50505050565b600082516103d3818460208701610391565b9190910192915050565b60208152600082518060208401526103fc816040850160208701610391565b601f01601f19169190910160400192915050565b60008261042d57634e487b7160e01b600052601260045260246000fd5b500690565b634e487b7160e01b600052603260045260246000fd5b60006001820161046857634e487b7160e01b600052601160045260246000fd5b506001019056fea164736f6c634300080d000a",
  "linkReferences": {},
  "deployedLinkReferences": {}
}