{
  "_format": "hh-sol-artifact-1",
  "contractName": "FurionToken",
  "sourceName": "contracts/tokens/FurionToken.sol",
  "abi": [
    {
      "inputs": [],
      "stateMutability": "nonpayable",
      "type": "constructor"
    },
    {
      "anonymous": false,
      "inputs": [
        {
          "indexed": true,
          "internalType": "address",
          "name": "owner",
          "type": "address"
        },
        {
          "indexed": true,
          "internalType": "address",
          "name": "spender",
          "type": "address"
        },
        {
          "indexed": false,
          "internalType": "uint256",
          "name": "value",
          "type": "uint256"
        }
      ],
      "name": "Approval",
      "type": "event"
    },
    {
      "anonymous": false,
      "inputs": [
        {
          "indexed": true,
          "internalType": "address",
          "name": "account",
          "type": "address"
        },
        {
          "indexed": false,
          "internalType": "uint256",
          "name": "amount",
          "type": "uint256"
        }
      ],
      "name": "Burn",
      "type": "event"
    },
    {
      "anonymous": false,
      "inputs": [
        {
          "indexed": false,
          "internalType": "address",
          "name": "newBurner",
          "type": "address"
        }
      ],
      "name": "BurnerAdded",
      "type": "event"
    },
    {
      "anonymous": false,
      "inputs": [
        {
          "indexed": false,
          "internalType": "address",
          "name": "oldBurner",
          "type": "address"
        }
      ],
      "name": "BurnerRemoved",
      "type": "event"
    },
    {
      "anonymous": false,
      "inputs": [
        {
          "indexed": true,
          "internalType": "address",
          "name": "account",
          "type": "address"
        },
        {
          "indexed": false,
          "internalType": "uint256",
          "name": "amount",
          "type": "uint256"
        }
      ],
      "name": "Mint",
      "type": "event"
    },
    {
      "anonymous": false,
      "inputs": [
        {
          "indexed": false,
          "internalType": "address",
          "name": "newMinter",
          "type": "address"
        }
      ],
      "name": "MinterAdded",
      "type": "event"
    },
    {
      "anonymous": false,
      "inputs": [
        {
          "indexed": false,
          "internalType": "address",
          "name": "oldMinter",
          "type": "address"
        }
      ],
      "name": "MinterRemoved",
      "type": "event"
    },
    {
      "anonymous": false,
      "inputs": [
        {
          "indexed": true,
          "internalType": "address",
          "name": "previousOwner",
          "type": "address"
        },
        {
          "indexed": true,
          "internalType": "address",
          "name": "newOwner",
          "type": "address"
        }
      ],
      "name": "OwnershipTransferred",
      "type": "event"
    },
    {
      "anonymous": false,
      "inputs": [
        {
          "indexed": true,
          "internalType": "address",
          "name": "from",
          "type": "address"
        },
        {
          "indexed": true,
          "internalType": "address",
          "name": "to",
          "type": "address"
        },
        {
          "indexed": false,
          "internalType": "uint256",
          "name": "value",
          "type": "uint256"
        }
      ],
      "name": "Transfer",
      "type": "event"
    },
    {
      "inputs": [],
      "name": "CAP",
      "outputs": [
        {
          "internalType": "uint256",
          "name": "",
          "type": "uint256"
        }
      ],
      "stateMutability": "view",
      "type": "function"
    },
    {
      "inputs": [],
      "name": "DOMAIN_SEPARATOR",
      "outputs": [
        {
          "internalType": "bytes32",
          "name": "",
          "type": "bytes32"
        }
      ],
      "stateMutability": "view",
      "type": "function"
    },
    {
      "inputs": [
        {
          "internalType": "address",
          "name": "_newBurner",
          "type": "address"
        }
      ],
      "name": "addBurner",
      "outputs": [],
      "stateMutability": "nonpayable",
      "type": "function"
    },
    {
      "inputs": [
        {
          "internalType": "address",
          "name": "_newMinter",
          "type": "address"
        }
      ],
      "name": "addMinter",
      "outputs": [],
      "stateMutability": "nonpayable",
      "type": "function"
    },
    {
      "inputs": [
        {
          "internalType": "address",
          "name": "owner",
          "type": "address"
        },
        {
          "internalType": "address",
          "name": "spender",
          "type": "address"
        }
      ],
      "name": "allowance",
      "outputs": [
        {
          "internalType": "uint256",
          "name": "",
          "type": "uint256"
        }
      ],
      "stateMutability": "view",
      "type": "function"
    },
    {
      "inputs": [
        {
          "internalType": "address",
          "name": "spender",
          "type": "address"
        },
        {
          "internalType": "uint256",
          "name": "amount",
          "type": "uint256"
        }
      ],
      "name": "approve",
      "outputs": [
        {
          "internalType": "bool",
          "name": "",
          "type": "bool"
        }
      ],
      "stateMutability": "nonpayable",
      "type": "function"
    },
    {
      "inputs": [
        {
          "internalType": "address",
          "name": "account",
          "type": "address"
        }
      ],
      "name": "balanceOf",
      "outputs": [
        {
          "internalType": "uint256",
          "name": "",
          "type": "uint256"
        }
      ],
      "stateMutability": "view",
      "type": "function"
    },
    {
      "inputs": [
        {
          "internalType": "address",
          "name": "_account",
          "type": "address"
        },
        {
          "internalType": "uint256",
          "name": "_amount",
          "type": "uint256"
        }
      ],
      "name": "burnFurion",
      "outputs": [],
      "stateMutability": "nonpayable",
      "type": "function"
    },
    {
      "inputs": [],
      "name": "decimals",
      "outputs": [
        {
          "internalType": "uint8",
          "name": "",
          "type": "uint8"
        }
      ],
      "stateMutability": "view",
      "type": "function"
    },
    {
      "inputs": [
        {
          "internalType": "address",
          "name": "spender",
          "type": "address"
        },
        {
          "internalType": "uint256",
          "name": "subtractedValue",
          "type": "uint256"
        }
      ],
      "name": "decreaseAllowance",
      "outputs": [
        {
          "internalType": "bool",
          "name": "",
          "type": "bool"
        }
      ],
      "stateMutability": "nonpayable",
      "type": "function"
    },
    {
      "inputs": [
        {
          "internalType": "address",
          "name": "spender",
          "type": "address"
        },
        {
          "internalType": "uint256",
          "name": "addedValue",
          "type": "uint256"
        }
      ],
      "name": "increaseAllowance",
      "outputs": [
        {
          "internalType": "bool",
          "name": "",
          "type": "bool"
        }
      ],
      "stateMutability": "nonpayable",
      "type": "function"
    },
    {
      "inputs": [
        {
          "internalType": "address",
          "name": "",
          "type": "address"
        }
      ],
      "name": "isBurner",
      "outputs": [
        {
          "internalType": "bool",
          "name": "",
          "type": "bool"
        }
      ],
      "stateMutability": "view",
      "type": "function"
    },
    {
      "inputs": [],
      "name": "isFurionTokens",
      "outputs": [
        {
          "internalType": "bool",
          "name": "",
          "type": "bool"
        }
      ],
      "stateMutability": "view",
      "type": "function"
    },
    {
      "inputs": [
        {
          "internalType": "address",
          "name": "",
          "type": "address"
        }
      ],
      "name": "isMinter",
      "outputs": [
        {
          "internalType": "bool",
          "name": "",
          "type": "bool"
        }
      ],
      "stateMutability": "view",
      "type": "function"
    },
    {
      "inputs": [
        {
          "internalType": "address",
          "name": "_account",
          "type": "address"
        },
        {
          "internalType": "uint256",
          "name": "_amount",
          "type": "uint256"
        }
      ],
      "name": "mintFurion",
      "outputs": [],
      "stateMutability": "nonpayable",
      "type": "function"
    },
    {
      "inputs": [],
      "name": "name",
      "outputs": [
        {
          "internalType": "string",
          "name": "",
          "type": "string"
        }
      ],
      "stateMutability": "view",
      "type": "function"
    },
    {
      "inputs": [
        {
          "internalType": "address",
          "name": "owner",
          "type": "address"
        }
      ],
      "name": "nonces",
      "outputs": [
        {
          "internalType": "uint256",
          "name": "",
          "type": "uint256"
        }
      ],
      "stateMutability": "view",
      "type": "function"
    },
    {
      "inputs": [],
      "name": "owner",
      "outputs": [
        {
          "internalType": "address",
          "name": "",
          "type": "address"
        }
      ],
      "stateMutability": "view",
      "type": "function"
    },
    {
      "inputs": [
        {
          "internalType": "address",
          "name": "owner",
          "type": "address"
        },
        {
          "internalType": "address",
          "name": "spender",
          "type": "address"
        },
        {
          "internalType": "uint256",
          "name": "value",
          "type": "uint256"
        },
        {
          "internalType": "uint256",
          "name": "deadline",
          "type": "uint256"
        },
        {
          "internalType": "uint8",
          "name": "v",
          "type": "uint8"
        },
        {
          "internalType": "bytes32",
          "name": "r",
          "type": "bytes32"
        },
        {
          "internalType": "bytes32",
          "name": "s",
          "type": "bytes32"
        }
      ],
      "name": "permit",
      "outputs": [],
      "stateMutability": "nonpayable",
      "type": "function"
    },
    {
      "inputs": [
        {
          "internalType": "address",
          "name": "_oldBurner",
          "type": "address"
        }
      ],
      "name": "removeBurner",
      "outputs": [],
      "stateMutability": "nonpayable",
      "type": "function"
    },
    {
      "inputs": [
        {
          "internalType": "address",
          "name": "_oldMinter",
          "type": "address"
        }
      ],
      "name": "removeMinter",
      "outputs": [],
      "stateMutability": "nonpayable",
      "type": "function"
    },
    {
      "inputs": [],
      "name": "renounceOwnership",
      "outputs": [],
      "stateMutability": "nonpayable",
      "type": "function"
    },
    {
      "inputs": [],
      "name": "symbol",
      "outputs": [
        {
          "internalType": "string",
          "name": "",
          "type": "string"
        }
      ],
      "stateMutability": "view",
      "type": "function"
    },
    {
      "inputs": [],
      "name": "totalSupply",
      "outputs": [
        {
          "internalType": "uint256",
          "name": "",
          "type": "uint256"
        }
      ],
      "stateMutability": "view",
      "type": "function"
    },
    {
      "inputs": [
        {
          "internalType": "address",
          "name": "to",
          "type": "address"
        },
        {
          "internalType": "uint256",
          "name": "amount",
          "type": "uint256"
        }
      ],
      "name": "transfer",
      "outputs": [
        {
          "internalType": "bool",
          "name": "",
          "type": "bool"
        }
      ],
      "stateMutability": "nonpayable",
      "type": "function"
    },
    {
      "inputs": [
        {
          "internalType": "address",
          "name": "from",
          "type": "address"
        },
        {
          "internalType": "address",
          "name": "to",
          "type": "address"
        },
        {
          "internalType": "uint256",
          "name": "amount",
          "type": "uint256"
        }
      ],
      "name": "transferFrom",
      "outputs": [
        {
          "internalType": "bool",
          "name": "",
          "type": "bool"
        }
      ],
      "stateMutability": "nonpayable",
      "type": "function"
    },
    {
      "inputs": [
        {
          "internalType": "address",
          "name": "newOwner",
          "type": "address"
        }
      ],
      "name": "transferOwnership",
      "outputs": [],
      "stateMutability": "nonpayable",
      "type": "function"
    }
  ],
  "bytecode": "0x6101406040523480156200001257600080fd5b506040518060400160405280600b81526020016a233ab934b7b72a37b5b2b760a91b81525060405180604001604052806003815260200162232aa960e91b815250338280604051806040016040528060018152602001603160f81b815250858581600390805190602001906200008a929190620001b4565b508051620000a0906004906020840190620001b4565b5050825160209384012082519284019290922060e08390526101008190524660a0818152604080517f8b73c3c69bb8fe3d512ecc4cf759cc79239f7b179b0ffacaa9a75d522b39400f818901819052818301979097526060810194909452608080850193909352308483018190528151808603909301835260c09485019091528151919096012090529290925261012052506200013f90508162000162565b5050336000908152600860205260409020805460ff191660011790555062000296565b600780546001600160a01b038381166001600160a01b0319831681179093556040519116919082907f8be0079c531659141344cd1fd0a4f28419497f9722a3daafe3b4186f6b6457e090600090a35050565b828054620001c2906200025a565b90600052602060002090601f016020900481019282620001e6576000855562000231565b82601f106200020157805160ff191683800117855562000231565b8280016001018555821562000231579182015b828111156200023157825182559160200191906001019062000214565b506200023f92915062000243565b5090565b5b808211156200023f576000815560010162000244565b600181811c908216806200026f57607f821691505b6020821081036200029057634e487b7160e01b600052602260045260246000fd5b50919050565b60805160a05160c05160e0516101005161012051611bd2620002e660003960006111cd0152600061121c015260006111f7015260006111500152600061117a015260006111a40152611bd26000f3fe608060405234801561001057600080fd5b50600436106101b95760003560e01c80637ecebe00116100f9578063acb3a86411610097578063dd62ed3e11610071578063dd62ed3e1461039d578063ec81b483146103d6578063f2fde38b146103e9578063f44637ba146103fc57600080fd5b8063acb3a86414610364578063cdb6353114610377578063d505accf1461038a57600080fd5b8063983b2d56116100d3578063983b2d5614610308578063a457c2d71461031b578063a9059cbb1461032e578063aa271e1a1461034157600080fd5b80637ecebe00146102d25780638da5cb5b146102e557806395d89b411461030057600080fd5b80633092afd5116101665780633950935111610140578063395093511461026b5780634334614a1461027e57806370a08231146102a1578063715018a6146102ca57600080fd5b80633092afd514610241578063313ce567146102545780633644e5151461026357600080fd5b8063095ea7b311610197578063095ea7b31461020957806318160ddd1461021c57806323b872dd1461022e57600080fd5b806302846858146101be57806306fdde03146101d35780630901bbd9146101f1575b600080fd5b6101d16101cc3660046119b3565b61040f565b005b6101db61053d565b6040516101e891906119d5565b60405180910390f35b6101f9600181565b60405190151581526020016101e8565b6101f9610217366004611a2a565b6105cf565b6002545b6040519081526020016101e8565b6101f961023c366004611a54565b6105e7565b6101d161024f3660046119b3565b61060b565b604051601281526020016101e8565b61022061072d565b6101f9610279366004611a2a565b61073c565b6101f961028c3660046119b3565b60096020526000908152604090205460ff1681565b6102206102af3660046119b3565b6001600160a01b031660009081526020819052604090205490565b6101d161077b565b6102206102e03660046119b3565b6107f0565b6007546040516001600160a01b0390911681526020016101e8565b6101db610810565b6101d16103163660046119b3565b61081f565b6101f9610329366004611a2a565b610945565b6101f961033c366004611a2a565b6109ef565b6101f961034f3660046119b3565b60086020526000908152604090205460ff1681565b6101d1610372366004611a2a565b6109fd565b6101d1610385366004611a2a565b610a0b565b6101d1610398366004611a90565b610a15565b6102206103ab366004611b03565b6001600160a01b03918216600090815260016020908152604080832093909416825291909152205490565b6102206b033b2e3c9fd0803ce800000081565b6101d16103f73660046119b3565b610b79565b6101d161040a3660046119b3565b610c6a565b336104226007546001600160a01b031690565b6001600160a01b03161461047d5760405162461bcd60e51b815260206004820181905260248201527f4f776e61626c653a2063616c6c6572206973206e6f7420746865206f776e657260448201526064015b60405180910390fd5b6001600160a01b03811660009081526008602052604090205460ff166104e55760405162461bcd60e51b815260206004820152600c60248201527f4e6f742061206275726e657200000000000000000000000000000000000000006044820152606401610474565b6001600160a01b038116600081815260096020908152604091829020805460ff1916905590519182527f90eabbc0c667db2a5029ed6bc0f5fe9f356d11684a4ca9fcfaec0e53f12b9c8e91015b60405180910390a150565b60606003805461054c90611b36565b80601f016020809104026020016040519081016040528092919081815260200182805461057890611b36565b80156105c55780601f1061059a576101008083540402835291602001916105c5565b820191906000526020600020905b8154815290600101906020018083116105a857829003601f168201915b5050505050905090565b6000336105dd818585610d90565b5060019392505050565b6000336105f5858285610eb4565b610600858585610f46565b506001949350505050565b3361061e6007546001600160a01b031690565b6001600160a01b0316146106745760405162461bcd60e51b815260206004820181905260248201527f4f776e61626c653a2063616c6c6572206973206e6f7420746865206f776e65726044820152606401610474565b6001600160a01b03811660009081526008602052604090205460ff166106dc5760405162461bcd60e51b815260206004820152600c60248201527f4e6f742061206d696e74657200000000000000000000000000000000000000006044820152606401610474565b6001600160a01b038116600081815260086020908152604091829020805460ff1916905590519182527fe94479a9f7e1952cc78f2d6baab678adc1b772d936c6583def489e524cb666929101610532565b6000610737611143565b905090565b3360008181526001602090815260408083206001600160a01b03871684529091528120549091906105dd9082908690610776908790611b80565b610d90565b3361078e6007546001600160a01b031690565b6001600160a01b0316146107e45760405162461bcd60e51b815260206004820181905260248201527f4f776e61626c653a2063616c6c6572206973206e6f7420746865206f776e65726044820152606401610474565b6107ee600061126a565b565b6001600160a01b0381166000908152600560205260408120545b92915050565b60606004805461054c90611b36565b336108326007546001600160a01b031690565b6001600160a01b0316146108885760405162461bcd60e51b815260206004820181905260248201527f4f776e61626c653a2063616c6c6572206973206e6f7420746865206f776e65726044820152606401610474565b6001600160a01b03811660009081526008602052604090205460ff16156108f15760405162461bcd60e51b815260206004820152601060248201527f416c72656164792061206d696e746572000000000000000000000000000000006044820152606401610474565b6001600160a01b038116600081815260086020908152604091829020805460ff1916600117905590519182527f6ae172837ea30b801fbfcdd4108aa1d5bf8ff775444fd70256b44e6bf3dfc3f69101610532565b3360008181526001602090815260408083206001600160a01b0387168452909152812054909190838110156109e25760405162461bcd60e51b815260206004820152602560248201527f45524332303a2064656372656173656420616c6c6f77616e63652062656c6f7760448201527f207a65726f0000000000000000000000000000000000000000000000000000006064820152608401610474565b6106008286868403610d90565b6000336105dd818585610f46565b610a0782826112d4565b5050565b610a078282611385565b83421115610a655760405162461bcd60e51b815260206004820152601d60248201527f45524332305065726d69743a206578706972656420646561646c696e650000006044820152606401610474565b60007f6e71edae12b1b97f4d1f60370fef10105fa2faae0126114a169c64845d6126c9888888610a948c611429565b6040805160208101969096526001600160a01b0394851690860152929091166060840152608083015260a082015260c0810186905260e0016040516020818303038152906040528051906020012090506000610aef82611451565b90506000610aff8287878761149f565b9050896001600160a01b0316816001600160a01b031614610b625760405162461bcd60e51b815260206004820152601e60248201527f45524332305065726d69743a20696e76616c6964207369676e617475726500006044820152606401610474565b610b6d8a8a8a610d90565b50505050505050505050565b33610b8c6007546001600160a01b031690565b6001600160a01b031614610be25760405162461bcd60e51b815260206004820181905260248201527f4f776e61626c653a2063616c6c6572206973206e6f7420746865206f776e65726044820152606401610474565b6001600160a01b038116610c5e5760405162461bcd60e51b815260206004820152602660248201527f4f776e61626c653a206e6577206f776e657220697320746865207a65726f206160448201527f64647265737300000000000000000000000000000000000000000000000000006064820152608401610474565b610c678161126a565b50565b33610c7d6007546001600160a01b031690565b6001600160a01b031614610cd35760405162461bcd60e51b815260206004820181905260248201527f4f776e61626c653a2063616c6c6572206973206e6f7420746865206f776e65726044820152606401610474565b6001600160a01b03811660009081526009602052604090205460ff1615610d3c5760405162461bcd60e51b815260206004820152601060248201527f416c72656164792061206275726e6572000000000000000000000000000000006044820152606401610474565b6001600160a01b038116600081815260096020908152604091829020805460ff1916600117905590519182527f86e57fd2b90329052917118de7c3f521f400d439b9650deaa906a25b08b945609101610532565b6001600160a01b038316610df25760405162461bcd60e51b8152602060048201526024808201527f45524332303a20617070726f76652066726f6d20746865207a65726f206164646044820152637265737360e01b6064820152608401610474565b6001600160a01b038216610e535760405162461bcd60e51b815260206004820152602260248201527f45524332303a20617070726f766520746f20746865207a65726f206164647265604482015261737360f01b6064820152608401610474565b6001600160a01b0383811660008181526001602090815260408083209487168084529482529182902085905590518481527f8c5be1e5ebec7d5bd14f71427d1e84f3dd0314c0f7b2291e5b200ac8c7c3b925910160405180910390a3505050565b6001600160a01b038381166000908152600160209081526040808320938616835292905220546000198114610f405781811015610f335760405162461bcd60e51b815260206004820152601d60248201527f45524332303a20696e73756666696369656e7420616c6c6f77616e63650000006044820152606401610474565b610f408484848403610d90565b50505050565b6001600160a01b038316610fc25760405162461bcd60e51b815260206004820152602560248201527f45524332303a207472616e736665722066726f6d20746865207a65726f20616460448201527f64726573730000000000000000000000000000000000000000000000000000006064820152608401610474565b6001600160a01b0382166110245760405162461bcd60e51b815260206004820152602360248201527f45524332303a207472616e7366657220746f20746865207a65726f206164647260448201526265737360e81b6064820152608401610474565b6001600160a01b038316600090815260208190526040902054818110156110b35760405162461bcd60e51b815260206004820152602660248201527f45524332303a207472616e7366657220616d6f756e742065786365656473206260448201527f616c616e636500000000000000000000000000000000000000000000000000006064820152608401610474565b6001600160a01b038085166000908152602081905260408082208585039055918516815290812080548492906110ea908490611b80565b92505081905550826001600160a01b0316846001600160a01b03167fddf252ad1be2c89b69c2b068fc378daa952ba7f163c4a11628f55a4df523b3ef8460405161113691815260200190565b60405180910390a3610f40565b6000306001600160a01b037f00000000000000000000000000000000000000000000000000000000000000001614801561119c57507f000000000000000000000000000000000000000000000000000000000000000046145b156111c657507f000000000000000000000000000000000000000000000000000000000000000090565b50604080517f00000000000000000000000000000000000000000000000000000000000000006020808301919091527f0000000000000000000000000000000000000000000000000000000000000000828401527f000000000000000000000000000000000000000000000000000000000000000060608301524660808301523060a0808401919091528351808403909101815260c0909201909252805191012090565b600780546001600160a01b038381167fffffffffffffffffffffffff0000000000000000000000000000000000000000831681179093556040519116919082907f8be0079c531659141344cd1fd0a4f28419497f9722a3daafe3b4186f6b6457e090600090a35050565b3360008181526008602052604090205460ff166113335760405162461bcd60e51b815260206004820152600e60248201527f496e76616c6964206d696e7465720000000000000000000000000000000000006044820152606401610474565b61133d83836114c7565b826001600160a01b03167f0f6798a560793a54c3bcfe86a93cde1e73087d944c0ea20544137d41213968858360405161137891815260200190565b60405180910390a2505050565b3360008181526009602052604090205460ff166113e45760405162461bcd60e51b815260206004820152600e60248201527f496e76616c6964206275726e65720000000000000000000000000000000000006044820152606401610474565b6113ee83836115a6565b826001600160a01b03167fcc16f5dbb4873280815c1ee09dbd06736cffcc184412cf7a71a0fdb75d397ca58360405161137891815260200190565b6001600160a01b03811660009081526005602052604090208054600181018255905b50919050565b600061080a61145e611143565b8360405161190160f01b6020820152602281018390526042810182905260009060620160405160208183030381529060405280519060200120905092915050565b60008060006114b0878787876116f4565b915091506114bd816117e1565b5095945050505050565b6001600160a01b03821661151d5760405162461bcd60e51b815260206004820152601f60248201527f45524332303a206d696e7420746f20746865207a65726f2061646472657373006044820152606401610474565b806002600082825461152f9190611b80565b90915550506001600160a01b0382166000908152602081905260408120805483929061155c908490611b80565b90915550506040518181526001600160a01b038316906000907fddf252ad1be2c89b69c2b068fc378daa952ba7f163c4a11628f55a4df523b3ef9060200160405180910390a35050565b6001600160a01b0382166116065760405162461bcd60e51b815260206004820152602160248201527f45524332303a206275726e2066726f6d20746865207a65726f206164647265736044820152607360f81b6064820152608401610474565b6001600160a01b0382166000908152602081905260409020548181101561167a5760405162461bcd60e51b815260206004820152602260248201527f45524332303a206275726e20616d6f756e7420657863656564732062616c616e604482015261636560f01b6064820152608401610474565b6001600160a01b03831660009081526020819052604081208383039055600280548492906116a9908490611b98565b90915550506040518281526000906001600160a01b038516907fddf252ad1be2c89b69c2b068fc378daa952ba7f163c4a11628f55a4df523b3ef9060200160405180910390a3505050565b6000807f7fffffffffffffffffffffffffffffff5d576e7357a4501ddfe92f46681b20a083111561172b57506000905060036117d8565b8460ff16601b1415801561174357508460ff16601c14155b1561175457506000905060046117d8565b6040805160008082526020820180845289905260ff881692820192909252606081018690526080810185905260019060a0016020604051602081039080840390855afa1580156117a8573d6000803e3d6000fd5b5050604051601f1901519150506001600160a01b0381166117d1576000600192509250506117d8565b9150600090505b94509492505050565b60008160048111156117f5576117f5611baf565b036117fd5750565b600181600481111561181157611811611baf565b0361185e5760405162461bcd60e51b815260206004820152601860248201527f45434453413a20696e76616c6964207369676e617475726500000000000000006044820152606401610474565b600281600481111561187257611872611baf565b036118bf5760405162461bcd60e51b815260206004820152601f60248201527f45434453413a20696e76616c6964207369676e6174757265206c656e677468006044820152606401610474565b60038160048111156118d3576118d3611baf565b0361192b5760405162461bcd60e51b815260206004820152602260248201527f45434453413a20696e76616c6964207369676e6174757265202773272076616c604482015261756560f01b6064820152608401610474565b600481600481111561193f5761193f611baf565b03610c675760405162461bcd60e51b815260206004820152602260248201527f45434453413a20696e76616c6964207369676e6174757265202776272076616c604482015261756560f01b6064820152608401610474565b80356001600160a01b03811681146119ae57600080fd5b919050565b6000602082840312156119c557600080fd5b6119ce82611997565b9392505050565b600060208083528351808285015260005b81811015611a02578581018301518582016040015282016119e6565b81811115611a14576000604083870101525b50601f01601f1916929092016040019392505050565b60008060408385031215611a3d57600080fd5b611a4683611997565b946020939093013593505050565b600080600060608486031215611a6957600080fd5b611a7284611997565b9250611a8060208501611997565b9150604084013590509250925092565b600080600080600080600060e0888a031215611aab57600080fd5b611ab488611997565b9650611ac260208901611997565b95506040880135945060608801359350608088013560ff81168114611ae657600080fd5b9699959850939692959460a0840135945060c09093013592915050565b60008060408385031215611b1657600080fd5b611b1f83611997565b9150611b2d60208401611997565b90509250929050565b600181811c90821680611b4a57607f821691505b60208210810361144b57634e487b7160e01b600052602260045260246000fd5b634e487b7160e01b600052601160045260246000fd5b60008219821115611b9357611b93611b6a565b500190565b600082821015611baa57611baa611b6a565b500390565b634e487b7160e01b600052602160045260246000fdfea164736f6c634300080d000a",
  "linkReferences": {},
  "deployedLinkReferences": {}
}